:020000040800F2
:10000000FCFF002071130000691300006913000059
:1000100069130000691300006913000069130000F0
:1000200069130000691300006913000069130000E0
:1000300069130000691300006913000069130000D0
:1000400069130000691300006913000069130000C0
:1000500069130000691300006913000069130000B0
:1000600069130000691300006913000069130000A0
:100070006913000069130000691300006913000090
:100080006913000069130000691300006913000080
:100090006913000069130000691300006913000070
:1000A0006913000069130000691300006913000060
:1000B0006913000069130000691300006913000050
:1000C0006913000069130000691300006913000040
:1000D0006913000069130000691300006913000030
:1000E0006913000069130000691300006913000020
:1000F0006913000069130000691300006913000010
:1001000069130000691300006913000069130000FF
:1001100069130000691300006913000069130000EF
:1001200069130000691300006913000069130000DF
:1001300069130000691300006913000069130000CF
:1001400069130000691300006913000069130000BF
:1001500001480068704700BF3400002083B0CDF82C
:1001600000E000F0FF031A09104603F00F021346E7
:1001700014E0194A02921FE0184A02921CE0184A41
:10018000029219E0174A029216E0174A029213E00F
:10019000164A029210E0164A02920DE00028E8D0BA
:1001A0000128E9D00228EAD00328EBD00428ECD0BB
:1001B0000528EDD00628EED0012212B29A40ADF803
:1001C000042002980A46BDF8041000F067FADDF832
:1001D00000E003B0704700BF00080140000C014080
:1001E000001001400014014000180140001C0140B3
:1001F0000020014081B0194900EA010108460022AF
:100200000EE0042022E0082020E010201EE0202044
:100210001CE040201AE0802018E040F2001015E0B9
:100220000F498842EDD00F498842ECD00E498842F0
:10023000EBD00E498842EAD00D498842E9D00D49F9
:100240008842E8D00C498842E7D010460B4909683B
:1002500041EA000209490A6001B0704700FCFFFF53
:1002600000080140000C0140001001400014014052
:1002700000180140001C01400020014018100240FD
:1002800082B0CDF800E0034619460191FFF760FF08
:1002900040F2E83100FB01F201990A601F49097838
:1002A000C1F30311C8B21E4909180878C0B21A1D5B
:1002B0001968C140116019490988C1F3022188B247
:1002C000174909180878C0B203F20802191D096815
:1002D000C140116011490988C1F3C22188B2104997
:1002E00009180878C0B203F20C02191D0968C14050
:1002F00011600A490988C1F3813188B20949091896
:100300000978C8B203F2100203F20C010968B1FBCC
:10031000F0F11160DDF800E002B070470410024017
:10032000A01600002211000081B0CDF800E00122EB
:1003300052B23E490A6000F268010B686FF000613A
:1003400003EA0102144603F00061C90E0B4602F0F5
:100350000041B1F1004F02D135490A6801E0354949
:100360000A6804F47021090C0E464FF6FF7104EA86
:1003700001010D4604F44011B1F5401F0DD16FF09D
:10038000706102EA01010E462A490A686FF0706145
:100390000A4028490A60324616E004F48011B1F59B
:1003A000801F09D14FF00301B140C94302EA0101A6
:1003B00041F070610A4607E0610D090105FA01F19B
:1003C000C9430A4042F070622BB1610D090105FA80
:1003D00001F10A43FFE704F00041B1F1004F02D1FF
:1003E00013490A6001E013490A6040F2000A81469D
:1003F0004FEA8A0109EB01010968B1F1FF3F10D012
:1004000009F134014FEA8A03C91809680A4609EB61
:100410000301096808461146FFF7A0FE0AF1010A28
:10042000E6E7DDF800E001B0704700BF000342429C
:100430001C0001400400014081B0ADF800100146ED
:10044000BDF800000B68C3F3C01202B9FAE70A1D39
:10045000106001B07047FFFF89B0CDF800E083461F
:1004600098B28C46BDF824100A9E04ACADF8041076
:10047000ADF808002046FFF703FFBDF80800BDF8FF
:100480000410644CA34512D101256DB2624C256065
:10049000624D634C2560634D634C2560634D644C35
:1004A0002560644D644C2560079C039456E0634CC2
:1004B000A34512D101256DB2614C2560614D584CA8
:1004C0002560614D584C2560604D594C2560604D4C
:1004D000594C2560069C039440E05E4CA34512D124
:1004E00001256DB25C4C25605C4D4D4C25605C4D2A
:1004F0004D4C25605B4D4E4C25605B4D4E4C256050
:10050000069C03942AE0594CA34512D101256DB2F3
:10051000574C2560574D424C2560574D424C256045
:10052000564D434C2560564D434C2560069C039424
:1005300014E0544CA34511D101256DB2524C2560F5
:10054000524D374C2560524D374C2560514D384C3B
:100550002560514D384C2560069C0394ADF804107D
:10056000ADF808003046FFF7DFFEBDF80800BDF823
:1005700004100BF1100500242C600BF110052C6801
:100580000C432C600BF10C0500242C6018B140F4D6
:10059000806080B2FFE70BF10C052C6804432C60EF
:1005A0000BF10C060125346865F34D3434600BF112
:1005B0000C060125346865F3C30434600BF10C06A6
:1005C0000125346865F3820434600BF114050024BE
:1005D0002C60039D192465434FEA8C04B5FBF4F7A6
:1005E0006424B7FBF4F42601350964246C433C1BF6
:1005F000240104F232056424B5FBF4F404F00F0482
:1006000046EA04040BF10805A4B22C60DDF800E012
:1006100009B07047003801403803424275090000B4
:1006200038000020FFFFFFFF3C000020FFFFFFFF1E
:1006300040000020FFFFFFFF440000200044004076
:10064000C4034242AD090000FFFFFFFFFFFFFFFFB1
:10065000FFFFFFFF00480040C8034242910900002D
:10066000FFFFFFFFFFFFFFFFFFFFFFFF004C00400A
:10067000CC034242FD080000FFFFFFFFFFFFFFFF2A
:10068000FFFFFFFF00500040D0034242E10800009E
:10069000FFFFFFFFFFFFFFFFFFFFFFFF81B0CDF870
:1006A00000E08CB21546774B00EA03031E4618465D
:1006B000FFF7A0FDB4F1FF0F0CD1734B9D4203D1A6
:1006C0004FF033333360D9E0422D03D14FF0443340
:1006D0003360D3E04FF6FF739C4214D16A4B9D42C6
:1006E00007D14FF033333360341D4FF03333236081
:1006F000C4E0422D07D14FF044333360341D4FF036
:1007000044332360BAE00021002005F001030BB15F
:1007100000211DE005F0020333B105F4C0730BB1F5
:10072000082100E0042113E005F0040333B105F0D3
:1007300020030BB1042100E0002109E005F00803CB
:1007400033B105F020030BB10C2100E00821FFE7D5
:100750004E4B05EA03030BB1032009E005F40073D7
:100760000BB1022004E005F480630BB10120FFE728
:1007700005F00C030BB10143FFE704F0FF039BB24C
:10078000002B3BD0376800201FFA84F832462E46F3
:1007900008282CD24FF0010303FA00F408EA0403FE
:1007A000A34222D185004FF00F03AB40DB4307EAA1
:1007B000030401FA05F344EA03031D4606F48173BA
:1007C000B3F5817F05D102F214044FF00103834099
:1007D000236006F08203822B05D102F210044FF051
:1007E0000103834023602F46FFE7401CD0E71760DA
:1007F0001FFA88F00F463146164602E00F4629469A
:10080000A0B2B0F1FF0F39D9331DD3F80080002218
:10081000082A30D202F208044FF0010303FA04F46C
:1008200000EA0403A34224D195004FF00F03AB402C
:10083000DB4308EA030807FA05F348EA030801F472
:100840008173B3F5817F07D106F2140502F2080423
:100850004FF00103A3402B6001F08203822B07D1EC
:1008600006F2100502F208044FF00103A3402B60CA
:10087000FFE7521CCCE7331DC3F80080DDF800E031
:1008800001B0704700FCFFFF1400080000080800DA
:1008900081B0CDF800E0019D2C4610B408B493B2AD
:1008A0008AB201460348FFF7D7FD02B0DDF800E049
:1008B00001B070470038014081B0CDF800E0019DE3
:1008C0002C4610B408B493B28AB201460348FFF72D
:1008D000C3FD02B0DDF800E001B070470048004001
:1008E00081B0CDF800E081B20348FFF7A5FDDDF847
:1008F00000E001B0704700BF0050004081B0CDF86B
:1009000000E081B20348FFF797FDDDF800E001B099
:10091000704700BF004C004081B0CDF800E0019D61
:100920002C4610B408B493B28AB201460348FFF7CC
:1009300093FD02B0DDF800E001B0704700440040D4
:1009400081B0CDF800E0044A89B2FFF7A7FEDDF8D8
:1009500000E001B0704700BF1400080081B0CDF87E
:1009600000E04FF0420289B2FFF798FEDDF800E0A8
:1009700001B0704781B0CDF800E081B20348FFF7C5
:100980005BFDDDF800E001B0704700BF00380140BA
:1009900081B0CDF800E081B20348FFF74DFDDDF8EE
:1009A00000E001B0704700BF0048004081B0CDF8C2
:1009B00000E081B20348FFF73FFDDDF800E001B041
:1009C000704700BF0044004001480068704700BF06
:1009D0000801224201480068704700BF2C012242F2
:1009E00001480068704700BF30012242014800689A
:1009F000704700BF3481224201480068704700BF41
:100A00002801224201480068704700BF10012142BE
:100A100001490860704700BF9C81214281B0CDF838
:100A200000E00178CCB2A0B2034C2468A0470020BB
:100A3000DDF800E001B0704728000020014908609F
:100A4000704700BF9881214201490860704700BF8C
:100A50009881224201490860704700BF9481224278
:100A600001480068704700BF00012142014800684A
:100A7000704700BF3081224201480068704700BFC4
:100A80003081224201480068704700BF2C01224299
:100A900001480068704700BF3001224201480068E9
:100AA000704700BF1881214201480068704700BFAD
:100AB0001C81214201480068704700BF1881224212
:100AC00001480068704700BF148122420148006855
:100AD000704700BF2801224201480068704700BFEC
:100AE0002081224201480068704700BF18812142DE
:100AF00001480068704700BF288122420148006811
:100B0000704700BF2481224201480068704700BF3F
:100B10000C01224201480068704700BF3881224220
:100B200001480068704700BF1C81214201480068ED
:100B3000704700BF1401214201490860704700BF9F
:100B4000B081224201490860704700BFA8012242DB
:100B500001490860704700BFB48122420149086022
:100B6000704700BF8801224201490860704700BFFA
:100B7000AC01224201490860704700BFA8812242AF
:100B800001490860704700BF8001214201490860A7
:100B9000704700BFB001224201490860704700BFA2
:100BA0009001214281B0CDF800E0094902B440F241
:100BB000000340F2000240F20001FFF77DFE01B0A9
:100BC000044A05490A600020DDF800E001B07047E2
:100BD00040150000910900002800002081B0CDF8E8
:100BE00000E0A9E0012905D140F220016548FFF7A6
:100BF000B5FE04E040F220016248FFF7A1FEBBE031
:100C0000012905D140F208015F48FFF7A7FE04E083
:100C100040F208015C48FFF793FEADE0012905D1E1
:100C200044F200015948FFF799FE04E044F2000144
:100C30005648FFF785FE9FE0012905D140F20041AB
:100C40005148FFF78BFE04E040F200414E48FFF7A9
:100C500077FE91E0012905D140F600014A48FFF7EF
:100C60007DFE04E040F600014748FFF769FE83E09F
:100C7000012905D141F200014348FFF76FFE04E06E
:100C800041F200014048FFF75BFE75E0012905D104
:100C900041F200013D48FFF761FE04E041F200012E
:100CA0003A48FFF74DFE67E0012905D140F6000103
:100CB0003648FFF753FE04E040F600013348FFF7E3
:100CC0003FFE59E0012905D140F240012F48FFF7CE
:100CD00045FE04E040F240012C48FFF731FE4BE0B6
:100CE000012905D140F220012848FFF737FE04E032
:100CF00040F220012548FFF723FE3DE0012905D100
:100D000040F240012248FFF729FE04E040F2400192
:100D10001F48FFF715FE2FE0012905D140F28001A1
:100D20001B48FFF71BFE04E040F280011848FFF764
:100D300007FE21E0012020E000283FF453AF012806
:100D40003FF45EAF02283FF469AF03283FF474AF6D
:100D500004283FF47FAF05283FF48AAF06283FF40C
:100D600095AF0728A0D00828ACD00928B8D00A2809
:100D7000C4D00B28D0D0DDE70020DDF800E001B0C2
:100D8000704700BF000801400010014000140140FE
:100D9000000C014081B0CDF800E0A9E0012905D1A7
:100DA00040F210016548FFF7D9FD04E040F2100160
:100DB0006248FFF7C5FDBBE0012905D140F20401FF
:100DC0005F48FFF7CBFD04E040F204015C48FFF709
:100DD000B7FDADE0012905D142F200015948FFF706
:100DE000BDFD04E042F200015648FFF7A9FD9FE077
:100DF000012905D140F200415148FFF7AFFD04E061
:100E000040F200414E48FFF79BFD91E0012905D1DA
:100E100040F600014A48FFF7A1FD04E040F600015A
:100E20004748FFF78DFD83E0012905D141F200011C
:100E30004348FFF793FD04E041F200014048FFF70B
:100E40007FFD75E0012905D140F201013B48FFF724
:100E500085FD04E040F201013848FFF771FD67E0CD
:100E6000012905D140F200413648FFF777FD04E043
:100E700040F200413348FFF763FD59E0012905D1F5
:100E800040F200212F48FFF769FD04E040F2002105
:100E90002C48FFF755FD4BE0012905D140F2001128
:100EA0002848FFF75BFD04E040F200112548FFF7FA
:100EB00047FD3DE0012905D140F240012248FFF7FE
:100EC0004DFD04E040F240011F48FFF739FD2FE0DF
:100ED000012905D140F280011B48FFF73FFD04E0E6
:100EE00040F280011848FFF72BFD21E0012020E0AF
:100EF00000283FF453AF01283FF45EAF02283FF4CF
:100F000069AF03283FF474AF04283FF47FAF05288E
:100F10003FF48AAF06283FF495AF0728A0D00828F1
:100F2000ACD00928B8D00A28C4D00B28D0D0DDE72F
:100F30000020DDF800E001B0704700BF000801406C
:100F40000010014000140140000C014081B0CDF8B8
:100F500000E0094902B440F2000340F2000240F20E
:100F60000001FFF7D9FC01B0044A05490A600020DE
:100F7000DDF800E001B07047D4140000AD090000B6
:100F80002800002000F2300108310A6803490A6095
:100F9000011D0A6802490A60704700BF2C0000204A
:100FA0003000002081B0CDF800E0094902B440F2E1
:100FB000000340F2000240F20001FFF7ADFC01B077
:100FC000044A05490A600020DDF800E001B07047DE
:100FD000D4140000AD0900002800002081B0CDF835
:100FE00000E0094902B440F2000340F2000240F27E
:100FF0000001FFF74DFC01B0044A05490A600020DA
:10100000DDF800E001B07047AC1500007509000084
:101010002800002001490860704700BFB00122424B
:1010200001490860704700BF8C01224201490860F5
:10103000704700BF9401214201490860704700BF1A
:10104000A801224201490860704700BFAC0122425A
:1010500001490860704700BFB88122420149086019
:10106000704700BFA481224201490860704700BF59
:10107000B081224201490860704700BFA08122422E
:1010800001490860704700BF9C8121420149086006
:10109000704700BF9881214281B0CDF800E05FFA2F
:1010A00081F95FFA82FA0FE05FFA8AF15FFA89F05C
:1010B000FFF770FE0DE05FFA8AF15FFA89F0FFF743
:1010C0008DFD06E0012004E00028EDD00128F2D0DB
:1010D000F8E7DDF800E001B07047FFFF81B0CDF820
:1010E00000E011E00846FFF75DFD16E00846FFF757
:1010F0002DFF12E00846FFF771FF0EE00846FFF7EC
:1011000051FF0AE0012008E00028EBD00128EDD0D3
:101110002028EFD03028F1D0F4E7DDF800E001B06E
:10112000704702040608FFFF41F6FF27C0F2B70729
:101130007F1EFDD100BF00BF00BF00BF00BF7047D2
:1011400081B0CDF800E0034C2468A047DDF800E052
:1011500001B070473000002081B0CDF800E0034CB2
:101160002468A047DDF800E001B070472C000020A3
:1011700081B0CDF800E0FFF705FFDDF800E001B039
:101180007047FFFF83B0CDF800E0024610460D2205
:101190008DF808200A228DF809201FE0FFF73EFC99
:1011A00023E002782AB10190FFF738FC0198401C37
:1011B000F7E71AE002782AB10190FFF72FFC0198B7
:1011C000401CF7E702AA1046FFF728FC0DF10902C0
:1011D0001046FFF723FC08E0062007E00029DDD0D9
:1011E0000129DED00229E5D0F6E70020DDF800E095
:1011F00003B0704781B04FF000094FF0000CBDEB19
:101200000A0F04DCBDEB0B0F01DBD446EA464BF8BA
:10121000049BBBEB0A0FFAD1BCEB0A0F05DDE246DB
:10122000D9F800B00BF1040BF1E701B07047FFFFF4
:1012300081B01548006840F001011348016013496E
:101240001348016010480168124801400E480160CF
:101250000D4801686FF4802001400B4801600C4884
:1012600001686FF4FE00014009480160064801680A
:101270006FF0A0500140044801604FF000010648A3
:10128000016001B0704700BF001002400000FFF095
:1012900004100240FFFFF6FE2C10024081B01CF843
:1012A000019B0BF8019BBBEB0A0FF8D101B0704713
:1012B00081B0CDF800E00848FFF75AFF0120FFF7A2
:1012C0003FFFFFF731FF05480221FFF75BFFDDF825
:1012D00000E001B0704700BF1816000000000020B9
:1012E00081B0CDF800E0FFF737FF0749087001280B
:1012F00005D106480221FFF745FFFFF715FFDDF88E
:1013000000E001B0704700BF0D0000200E0000207B
:1013100081B0CDF800E0012202210020FFF7BCFEE1
:10132000002201210020FFF7B7FE42F28051202069
:10133000FFF7D4FE44F67F77C0F2120700BF00BF6C
:101340007F1EFDD100BF00BF00BFDDF800E001B08F
:101350007047FFFF81B002490248016001B0704749
:10136000401901003400002081B0FEE701B0704751
:1013700000F00EF800F0DCF9FFF7ECFF00F098F950
:10138000FFF7C6FFFFF794FFFFF7AAFFFCE7FEE7B2
:1013900081B0CDF800E0464A464B474C47494BF6F2
:1013A0008030814206D94648006840F00201444836
:1013B000016011E045F6C050814206D940480068FE
:1013C00040F001013E48016006E03D4801686FF0D1
:1013D000070001403A480160FFF72AFF39480360DF
:1013E00039480460394802EA00013948016002F0D6
:1013F000010040B119463648006800F0020000289C
:1014000000D1F8E700E0194602F4803040B10B4605
:101410002F48006800F40030002800D1F8E700E011
:101420000B4602F0805068B12948006840F08051B6
:10143000274801602648006800F00050002800D1CD
:10144000F8E7FFE702F0806078B12148006840F0DB
:1014500080611F48016011461A461D48006800F06F
:101460000060002800D1F8E701E011461A4601F0BB
:10147000807070B11648006840F0807114480160B7
:1014800011461348006800F0007000B9F9E70A46F9
:10149000FFE70C48006800F00C01900000F00C0021
:1014A000814200D0F5E7DDF800E001B0704700BFF1
:1014B0008100010502841D0044060100401901005D
:1014C00000200240041002402C100240FFFF0F00D9
:1014D000001002403500000036000000FFFFFFFF53
:1014E00000000000000000000000000000000000FC
:1014F00000000000000000000000000000000000EC
:1015000000000000000000001808000018000000A3
:1015100000000000000000000000000000000000CB
:1015200000000000000000000000000000000000BB
:10153000000000000000000000000000080000089B
:101540003800000039000000FFFFFFFF000000002E
:10155000000000000000000000000000000000008B
:10156000000000000000000000000000000000007B
:101570000000000018080000180000000000000033
:10158000000000000000000000000000000000005B
:10159000000000000000000000000000000000004B
:1015A00000000000000000003000140809000000E6
:1015B0000A000000FFFFFFFF000000000000000025
:1015C000000000000000000000000000000000001B
:1015D000000000000000000000000000000000000B
:1015E00018080000180000000000000000000000C3
:1015F00000000000000000000000000000000000EB
:1016000000000000000000000000000000000000DA
:101610000000000004000000990B00005D0B0000BA
:10162000510B0000450B0000690B00008D0B000002
:10163000810B0000750B00005D10000075100000AC
:101640008D10000081100000050A0000C90900008B
:10165000ED090000F9090000D5090000E1090000CA
:10166000610A0000F10A0000FD0A0000D90A00002A
:10167000E50A0000210B00002D2D2D20496E697414
:10168000202D2D2D0000566F6C74617365207265DE
:10169000647563656420746F20333330306D560099
:1016A0000000000001020304010203040607080908
:1016B00000B5DFF814B0DFF814A0DFF814C0FFF7AE
:1016C000EDFD00BD704700BF000000202800002095
:1016D00078160000FFFFFFFFFFFFFFFFFFFFFFFF88
:1016E000FFFFFFFFFFFFFFFFFFFFFFFFFFFFFFFF0A
:1016F000FFFFFFFFFFFFFFFFFFFFFFFFFFFFFFFFFA
:10170000FFFFFFFFFFFFFFFFFFFFFFFFFFFFFFFFE9
:10171000FFFFFFFFFFFFFFFFFFFFFFFFFFFFFFFFD9
:10172000FFFFFFFFFFFFFFFFFFFFFFFFFFFFFFFFC9
:1017300000B5DFF810B0DFF810A0FFF75BFD00BDCB
:10174000704700BF0000002048000020FFFFFFFF9F
:00000001FF
