:10000000FCFF03205D170000151700001517000006
:100010001517000015170000151700001517000030
:100020001517000015170000151700001517000020
:100030001517000015170000151700001517000010
:100040001517000015170000151700001517000000
:1000500015170000151700001517000015170000F0
:1000600015170000151700001517000015170000E0
:1000700015170000151700001517000015170000D0
:1000800015170000151700001517000015170000C0
:1000900015170000151700001517000015170000B0
:1000A00015170000151700001517000015170000A0
:1000B0001517000015170000151700001517000090
:1000C0001517000015170000151700001517000080
:1000D0001517000015170000151700001517000070
:1000E0001517000015170000151700001517000060
:1000F0001517000015170000151700001517000050
:10010000151700001517000015170000151700003F
:10011000151700001517000015170000151700002F
:10012000151700001517000015170000151700001F
:10013000151700001517000015170000151700000F
:1001400015170000151700001517000015170000FF
:1001500015170000151700001517000015170000EF
:1001600015170000151700001517000015170000DF
:1001700015170000151700001517000015170000CF
:1001800015170000151700001517000015170000BF
:1001900015170000151700001517000015170000AF
:1001A000151700001517000015170000151700009F
:1001B000151700001517000015170000151700008F
:1001C000151700001517000015170000151700007F
:1001D000151700001517000015170000151700006F
:1001E000151700001517000015170000151700005F
:1001F000151700001517000015170000151700004F
:0802000015170000151700009E
:10175C0000F010F8FFF7DCFF00F072FAFFF7EEFF75
:10176C0000F02EFAFFF7AEFFFFF77AFFFFF790FFBE
:04177C00FCE7FEE7A1
:1016580081B01CF8019B0BF8019BBBEB0A0FF8D17A
:0416680001B0704716
:1016000081B04FF000094FF0000CBDEB0A0F04DC75
:10161000BDEB0B0F01DBD446EA464BF8049BBBEB5A
:101620000A0FFAD1BCEB0A0F05DDE246D9F800B08B
:0A1630000BF1040BF1E701B0704765
:1016D00081B0CDF800E0012202210020FFF7F0FEEA
:1016E000002201210020FFF7EBFE42F28051202072
:1016F000FFF708FF40F6FE07C0F23D0700BF00BF3E
:101700007F1EFDD100BF00BF00BFDDF800E001B0CB
:02171000704720
:1014C00081B0CDF800E05FFA81FA5FFA82FB0FE0AD
:1014D0005FFA8BF15FFA8AF0FFF790FE0DE05FFA9A
:1014E0008BF15FFA8AF0FFF7C3FD06E0012004E00C
:1014F0000028EDD00128F2D0F8E7DDF800E001B0D7
:02150000704732
:1011FC0081B0CDF800E091E0012904D110215A48CA
:10120C00FFF712FE03E010215748FFF7F7FDA5E0AA
:10121C00012904D101215448FFF706FE03E0012106
:10122C005148FFF7EBFD99E0012904D101214F480A
:10123C00FFF7FAFD03E001214C48FFF7DFFD8DE0DD
:10124C00012904D104214A48FFF7EEFD03E00421F3
:10125C004748FFF7D3FD81E0012904D11021444810
:10126C00FFF7E2FD03E010214148FFF7C7FD75E0F1
:10127C00012904D120213E48FFF7D6FD03E02021AF
:10128C003B48FFF7BBFD69E0012904D10121394836
:10129C00FFF7CAFD03E001213648FFF7AFFD5DE023
:1012AC00012904D110213448FFF7BEFD03E01021C1
:1012BC003148FFF7A3FD51E0012904D140212F480B
:1012CC00FFF7B2FD03E040212C48FFF797FD45E006
:1012DC00012904D180212948FFF7A6FD03E08021D4
:1012EC002648FFF78BFD39E0012904D104211F4862
:1012FC00FFF79AFD03E004211C48FFF77FFD2DE06A
:10130C00012904D108211948FFF78EFD03E00821BB
:10131C001648FFF773FD21E0012020E000283FF480
:10132C006BAF01283FF474AF02283FF47DAF032864
:10133C003FF486AF04283FF48FAF05283FF498AFF5
:10134C0006283FF4A1AF0728AAD00828B4D0092852
:10135C00BED00A28C8D00B28D2D0DDE70020DDF89B
:10136C0000E001B0704700BF00C005400090054090
:10137C000080054000B0054000D0054000A00540AD
:100E340081B0CDF800E0002440F240031BB240F240
:100E4400001212B21A4393B2002210B4FFF78CFBC3
:0A0E540001B0DDF800E001B07047C6
:10056C0082B0CDF800E05FFA81F8D5B29FB29DF869
:10057C000830F54C00EA0404A1462046FFF73EFE85
:10058C00F24CA54208D109F580666FEA0805EDB278
:10059C0034682C40346008E0ED4CA54205D109F5D7
:1005AC0080652C6844EA08042C6040F2010407EAD8
:1005BC000404A4B234B109F5A2652C6844EA080419
:1005CC002C6007E009F5A2666FEA0805EDB2346805
:1005DC002C40346040F2020407EA0404A4B234B1A3
:1005EC0009F214552C6844EA08042C6007E009F25F
:1005FC0014566FEA0805EDB234682C40346040F2B2
:10060C00080407EA0404A4B234B109F20C552C68AE
:10061C0044EA08042C6007E009F20C566FEA08055E
:10062C00EDB234682C40346040F2100407EA040444
:10063C00A4B234B109F5A0652C6844EA08042C6016
:10064C0007E009F5A0666FEA0805EDB234682C40A6
:10065C00346040F2200407EA0404A4B234B109F275
:10066C0004552C6844EA08042C6007E009F204568F
:10067C006FEA0805EDB234682C40346040F2400457
:10068C0007EA0404A4B234B109F5A1652C6844EA64
:10069C0008042C6007E009F5A1666FEA0805EDB2C5
:1006AC0034682C40346041F2000407EA0404A4B21C
:1006BC00012C13D042F2000407EA0404A4B2012C6A
:1006CC000CD044F2000407EA0404A4B2012C05D0B7
:1006DC00DEB24B46B8B25FFA88F53CE0002000264B
:1006EC00DAB2BBB207465FFA88F04946082E13D23D
:1006FC0020FA06F4E4B204F00104E4B24CB1750043
:10070C002DB2032424B2AC4024B247EA04052F4690
:10071C00FFE7761CF6B2E9E701F6C476FD433468D0
:10072C002C40346001F23C56C543EDB234682C4089
:10073C00346001F5A166C543EDB234682C403460D9
:10074C0001F20456C543EDB234682C403460C5B296
:10075C0098B20B46D6B2002141F2000400EA040420
:10076C00A4B23CB300220F46E9B2082A13D221FAF4
:10077C0002F4E4B204F00104E4B24CB155002DB221
:10078C00012424B2AC4024B247EA04052F46FFE70B
:10079C00521CD2B2E9E703F6C4752C683C432C60BA
:1007AC0003F5A1652C680C432C603D461F4683B2B3
:1007BC00C8B203E01F4683B2E8B20D4642F2000411
:1007CC0003EA0404A4B26CB30022A8463946082AF2
:1007DC0013D220FA02F4E4B204F00104E4B24CB1F6
:1007EC0055002DB2032424B2AC4024B248EA0405CF
:1007FC00A846FFE7521CD2B2E9E701F6C4752C6893
:10080C0044EA08042C6001F23C552C6804432C602B
:10081C0001F5A1652C6804432C60F7B20E46C2B2F8
:10082C0098B205E00197C2B298B2F7B2A846019E01
:10083C0044F2000400EA0404A4B284B30023D1B24D
:10084C00082B14D221FA03F4E4B204F00104E4B24C
:10085C0054B15D002DB2032424B2AC4024B248EA5A
:10086C00040422469046FFE75B1CDBB2E8E706F681
:10087C00C4752C6844EA08042C6006F23C552C68BC
:10088C000C432C6006F5A1652C680C432C6006F219
:10089C0004552C680C432C60FBB2324602E0D1B2FA
:1008AC003246FBB240F2800400EA0404A4B274B1F4
:1008BC0040F2400400EA0404A4B22CB102F5A36592
:1008CC002C680C432C6001E00120FAE006E002F5F4
:1008DC00A366CD43EDB234682C40346040F2001472
:1008EC0000EA0404A4B22CB102F21C552C680C438F
:1008FC002C6006E002F21C56CD43EDB234682C405D
:10090C00346040F2002400EA0404A4B2002C3AD073
:10091C00104CA24240F2000500D001250E4CA24220
:10092C0040F2000400D0012425400C4CA24240F2BD
:10093C00000400D001242540094CA24240F20004DE
:10094C0000D0012425400DE000F0FFFF0000000066
:10095C000100000000C0054000B0054000900540BB
:10096C0000100640594CA24240F2000400D0012471
:10097C0005EA04040CB10120A3E002F5A5652C687E
:10098C000C432C602AE0524CA24240F2000500D1EC
:10099C000125504CA24240F2000400D10124254311
:1009AC004D4CA24240F2000400D1012425434B4C93
:1009BC00A24240F2000400D101242543434CA24240
:1009CC0040F2000400D1012445EA040434B102F5DC
:1009DC00A566CD43EDB234682C40346040F600047B
:1009EC0000EA0404A4B22CB102F5A6652C680C43F1
:1009FC002C6006E002F5A666CD43EDB234682C40BF
:100A0C00346040F2004400EA0404A4B22CB102F5B4
:100A1C0084652C680C432C6006E002F58466CD439B
:100A2C00EDB234682C4034600BB9002049E00F2B38
:100A3C0001D9012045E0002700208DF80430C3B215
:100A4C0010469DF80420082B12D221FA03F4E4B2CC
:100A5C0004F00104E4B244B19D002DB24FF00F0438
:100A6C00AC4047EA04052F46FFE75B1CDBB2EAE724
:100A7C0000F22C56FD4334682C40346000260023D1
:100A8C008DF80430CBB29DF80410082913D223FA48
:100A9C0001F4E4B204F00104E4B24CB1D5B28C0020
:100AAC0024B205FA04F446EA040425462E46FFE770
:100ABC00491CC9B2E9E700F22C552C6834432C6070
:100ACC000020DDF800E002B0704700BF0050064087
:100ADC0000C0054000B005400090054000100640E5
:1002080081B0664900EA010108467DE06449096851
:1002180041F0010262490A60BEE06149096841F0A3
:1002280002025F490A60B7E05D49096841F00402CB
:100238005B490A60B0E05A49096841F00802584928
:100248000A60A9E05649096841F0100254490A6059
:10025800A2E05349096841F0200251490A609BE035
:100268004F49096841F040024D490A6094E04C4901
:10027800096841F080024A490A608DE048490968E6
:1002880041F4807246490A6086E04549096841F4AC
:10029800007243490A607FE04149096841F480627D
:1002A8003F490A6078E03E49096841F400623C49E8
:1002B8000A6071E03A49096841F4805238490A6095
:1002C8006AE03749096841F4005235490A6063E039
:1002D8003349096841F4804231490A605CE0304999
:1002E800096841F400422E490A6055E02C49096822
:1002F80041F480322A490A604EE02949096841F4EC
:10030800003227490A6047E0264988423FF47EAF19
:10031800254988423FF481AF244988423FF484AF9D
:10032800234988423FF487AF224988423FF48AAF85
:10033800214988423FF48DAF204988423FF490AF6D
:100348001F4988423FF493AF1E4988423FF496AF55
:100358001D4988423FF499AF1C4988423FF49CAF3D
:100368001B4988423FF49FAF1A4988423FF4A2AF25
:10037800194988423FF4A5AF184988423FF4A8AF0D
:10038800174988423FF4ABAF164988423FF4AEAFF5
:10039800154988423FF4B1AF01B0704700F0FFFF44
:1003A80008E60F40008005400090054000A0054089
:1003B80000B0054000C0054000D0054000E0054001
:1003C80000F00540000006400010064000200640EE
:1003D80000300640004006400050064000600640DD
:0C03E800007006400080064000900640B7
:100E080081B0CDF800E0002440F240031BB240F26C
:100E1800001212B21A4393B2012210B4FFF7A2FBD8
:0A0E280001B0DDF800E001B07047F2
:1010700081B0CDF800E091E0012904D120215A4847
:10108000FFF7D8FE03E020215748FFF7BDFEA5E09B
:10109000012904D102215448FFF7CCFE03E00221CC
:1010A0005148FFF7B1FE99E0012904D120214F48B2
:1010B000FFF7C0FE03E020214C48FFF7A5FE8DE0BE
:1010C000012904D104214A48FFF7B4FE03E00421BA
:1010D0004748FFF799FE81E0012904D110214448D7
:1010E000FFF7A8FE03E010214148FFF78DFE75E0F1
:1010F000012904D120213E48FFF79CFE03E0202176
:101100003B48FFF781FE69E0012904D102213948FB
:10111000FFF790FE03E002213648FFF775FE5DE021
:10112000012904D140213348FFF784FE03E0402128
:101130003048FFF769FE51E0012904D110212E4803
:10114000FFF778FE03E010212B48FFF75DFE45E036
:10115000012904D120212848FFF76CFE03E020215B
:101160002548FFF751FE39E0012904D104211F4829
:10117000FFF760FE03E004211C48FFF745FE2DE069
:10118000012904D108211948FFF754FE03E0082182
:101190001648FFF739FE21E0012020E000283FF447
:1011A0006BAF01283FF474AF02283FF47DAF0328F2
:1011B0003FF486AF04283FF48FAF05283FF498AF83
:1011C00006283FF4A1AF0728AAD00828B4D00928E0
:1011D000BED00A28C8D00B28D2D0DDE70020DDF829
:1011E00000E001B0704700BF00C00540009005401E
:0C11F0000080054000B0054000A0054054
:1015040081B0CDF800E011E00846FFF79DFD16E03C
:101514000846FFF739FF12E00846FFF769FF0EE0BF
:101524000846FFF753FF0AE0012008E00028EBD04B
:101534000128EDD02028EFD03028F1D0F4E7DDF8F1
:0615440000E001B0704759
:10104C0081B0CDF800E0FFF775FE044A04490A6050
:10105C000020DDF800E001B0704700BF090D000072
:04106C002800002038
:100D400082B0CDF800E00346214A22490A60224AD7
:100D500022490A60224A23490A60234A23490A6039
:100D600001932348FFF75EFB019B012252B2214908
:100D70000A6000BF00BF00BFFFF742FBFFF73AFB6E
:100D800040F2E83100FB01F210461901914205D909
:100D9000012252B218490A605A0804E0002252B2F5
:100DA00015490A601A46C100B1FBF2F1491C4B0813
:100DB0009A0912490A6003F03F0211490A60602251
:100DC00010490A60FFF778FBDDF800E002B07047D9
:100DD000090D000038000020FFFFFFFF3C0000204D
:100DE000FFFFFFFF40000020FFFFFFFF4400002047
:100DF000B018000014C3FC43140622422410014022
:080E0000281001402C100140F4
:1004240081B0CDF800E040F2000B82460AF1D80119
:1004340009788B4539D20C210BFB01F10AEB010140
:100444008C460CF108010978A9B90CF10801097866
:10045400CCB20CF1060109888BB20CF104010978C5
:10046400CAB2DCF800100846D1B2002210B400F081
:100474007BF801B014E00CF108010978CCB20CF15E
:10048400060109888BB20CF104010978CAB2DCF8C0
:1004940000100846D1B20F2210B400F065F801B084
:1004A4000BF1010B5FFA8BFBC0E7DDF800E001B054
:0204B40070478F
:1004000081B0002149B204480160044801600448F9
:10041000016001B0704700BF000622422006224260
:04042000240622424A
:0C03F40001480068704700BF3400002082
:1004B80081B0012149B20448016004480160044840
:1004C800016001B0704700BF0006224220062242A8
:0404D8002406224292
:10138C0081B0CDF800E0FFF7B9FB044A04490A60CC
:10139C000020DDF800E001B0704700BF250C000014
:0413AC0028000020F5
:100B080082B0CDF800E00346214A22490A60224A11
:100B180022490A60224A23490A60234A23490A6073
:100B280001932348FFF77AFC019B012252B2214925
:100B38000A6000BF00BF00BFFFF7F0FCFFF756FCDC
:100B480040F2E83100FB01F210461901914205D943
:100B5800012252B218490A605A0804E0002252B22F
:100B680015490A601A46C100B1FBF2F1491C4B084D
:100B78009A0912490A6003F03F0211490A6060228B
:100B880010490A60FFF7DCFCDDF800E002B07047AE
:100B9800250C000038000020FFFFFFFF3C0000206C
:100BA800FFFFFFFF40000020FFFFFFFF4400002081
:100BB800681A00001CC3FC43140626422430014076
:080BC800283001402C300140EF
:1005240081B0002149B204480160044801600448D4
:10053400016001B0704700BF000626422006264233
:040544002406264221
:1005480081B0012149B204480160044801600448AF
:10055800016001B0704700BF00062642200626420F
:0405680024062642FD
:1013F40081B0CDF800E0FFF721FC044A04490A60FB
:101404000020DDF800E001B0704700BFD10B000000
:04141400280000208C
:100C400082B0CDF800E00346214A22490A60224AD8
:100C500022490A60224A23490A60234A23490A603A
:100C600001932348FFF7DEFB019B012252B2214989
:100C70000A6000BF00BF00BFFFF730FCFFF7BAFB00
:100C800040F2E83100FB01F210461901914205D90A
:100C9000012252B218490A605A0804E0002252B2F6
:100CA00015490A601A46C100B1FBF2F1491C4B0814
:100CB0009A0912490A6003F03F0211490A60602252
:100CC00010490A60FFF71CFCDDF800E002B0704735
:100CD000D10B000038000020FFFFFFFF3C00002088
:100CE000FFFFFFFF40000020FFFFFFFF4400002048
:100CF0008C19000008C3FC4314061C4224E0004089
:080D000028E000402CE0004057
:1004DC0081B0002149B2044801600448016004481D
:1004EC00016001B0704700BF00061C4220061C4290
:0404FC0024061C4274
:1005000081B0012149B204480160044801600448F7
:10051000016001B0704700BF00061C4220061C426B
:0405200024061C424F
:1013D00081B0CDF800E0FFF797FB044A04490A60AA
:1013E0000020DDF800E001B0704700BF250C0000D0
:0413F00028000020B1
:10166C0081B0CDF800E00848FFF782FF0120FFF7BA
:10167C0067FFFFF713FF05480221FFF783FFDDF833
:10168C0000E001B0704700BF441B00001B000020AD
:10157C0081B0CDF800E0FFF715FFDDF800E001B019
:02158C007047A6
:1013B00000F2300108310A6803490A60011D0A6819
:1013C00002490A60704700BF2C0000203000002056
:10154C0081B0CDF800E0034C2468A047DDF800E042
:08155C0001B0704730000020CF
:0C10400001490860704700BF907FB84273
:0C10040001490860704700BF807FB842BF
:0C0FF80001490860704700BF807FB242D2
:0C0FEC0001490860704700BF887FB042D8
:0C10100001490860704700BF907FB042AB
:0C10340001490860704700BF947FB04283
:0C10280001490860704700BF807FB6429D
:0C101C0001490860704700BF907FBA4295
:0C146C0001490860704700BF987FB4423F
:0C14840001490860704700BF9C7FB44223
:0C149C0001490860704700BF887FB24221
:0C14900001490860704700BF8C7FB24229
:0C14600001490860704700BF947FB8424B
:0C14300001490860704700BF847FB8428B
:0C14240001490860704700BF947FB2428D
:0C14540001490860704700BF887FB0426B
:0C143C0001490860704700BF907FB0427B
:0C14480001490860704700BF947FB0426B
:0C14180001490860704700BF847FB642A5
:0C14780001490860704700BF987FB64231
:0C0FE00001490860704700BF907FB442D8
:0C0EFC0001490860704700BF947FB442B9
:0C0EE40001490860704700BF887FB242DF
:0C0EB80001490860704700BF8C7FB24207
:1014A80045F6FE17C0F262277F1EFDD100BF00BFC0
:0814B80000BF00BF00BF704738
:1015900083B0CDF800E0024610460D228DF80820F9
:1015A0000A228DF809201FE0FFF78CFC23E0027867
:1015B0002AB10190FFF786FC0198401CF7E71AE07A
:1015C00002782AB10190FFF77DFC0198401CF7E7F3
:1015D00002AA1046FFF776FC0DF109021046FFF74C
:1015E00071FC08E0062007E00029DDD00129DED0EB
:1015F0000229E5D0F6E70020DDF800E003B07047EF
:100EC40081B0CDF800E00178CCB2A0B2034C246824
:100ED400A0470020DDF800E001B0704728000020A2
:100E600081B00449096801B1FBE70349086001B09A
:0C0E7000704700BF1403184200C000408F
:100D240081B00449096801B1FBE70349086001B0D7
:0C0D3400704700BF14031A4200D00040BA
:100BD00081B00449096801B1FBE70349086001B02D
:0C0BE000704700BF14031C4200E00040FE
:100AEC0081B00449096801B1FBE70349086001B012
:0C0AFC00704700BF14031E4200F00040D1
:100BEC0081B00449096801B1FBE70349086001B011
:0C0BFC00704700BF1403204200000140BD
:100D080081B00449096801B1FBE70349086001B0F3
:0C0D1800704700BF14032242001001408D
:100C080081B00449096801B1FBE70349086001B0F4
:0C0C1800704700BF14032442002001407C
:100C240081B00449096801B1FBE70349086001B0D8
:0C0C3400704700BF14032642003001404E
:10169C0081B0CDF800E0FFF75FFF07490870012823
:1016AC0005D106480221FFF76DFFFFF7F7FEDDF8C5
:1016BC0000E001B0704700BF0000002001000020D6
:1015640081B0CDF800E0034C2468A047DDF800E02A
:0815740001B070472C000020BB
:0C0EF00001480068704700BF907FB842C6
:0C0E880001480068704700BF807FB8423E
:0C0E7C0001480068704700BF807FB24250
:0C0EAC0001480068704700BF887FB0421A
:0C0EA00001480068704700BF907FB0421E
:0C0E940001480068704700BF947FB04226
:0C0F8C0001480068704700BF807FB6423B
:0C0F980001480068704700BF907FBA421B
:0C0F740001480068704700BF987FB4423D
:0C0F800001480068704700BF9C7FB4422D
:0C0FA40001480068704700BF887FB2421F
:0C0FC80001480068704700BF8C7FB242F7
:0C0FD40001480068704700BF947FB842DD
:0C0F200001480068704700BF847FB842A1
:0C0F140001480068704700BF947FB242A3
:0C0F680001480068704700BF887FB0425D
:0C0F440001480068704700BF907FB04279
:0C0F500001480068704700BF947FB04269
:0C0F5C0001480068704700BF847FB64267
:0C0F380001480068704700BF987FB64277
:0C0F080001480068704700BF907FB442B1
:0C0F2C0001480068704700BF947FB44289
:0C0FBC0001480068704700BF887FB24207
:0C0FB00001480068704700BF8C7FB2420F
:1017800081B0CDF800E0344A344B354C354D364EFF
:101790004FF03011354801600021354801606FF08D
:1017A000010003EA000133480160C3F3C00018B927
:1017B000FFF746FFFFF744FFC3F3000018B1012114
:1017C00049B22D4801602D48864203D92C4927484B
:1017D000016021E02B48864203D92B492348016050
:1017E0001AE04CF25030864203D928491F48016064
:1017F00012E047F23050864203D925491B48016068
:101800000AE0B6F57A5F03D922491848016003E07F
:101810004FF03011154801601F4804601F480560F3
:101820006FF0805002EA000111480160012149B2C5
:101830001B4801601B48016002F0805038B11A4813
:10184000006800B9FBE7012149B218480160DDF8E2
:1018500000E001B0704700BF040030331100000009
:101860001800800000000000C0D40100C0E00F405C
:10187000B0E00F407CE00F40800FFC43A0860100E9
:10188000960130008038010055013000D30030004F
:10189000B20030007100300060E10F4064E10F40A1
:1018A0007C16FC437816FC43002DFC437016FC4369
:1016400041F67E27C0F206077F1EFDD100BF00BF16
:0816500000BF00BF00BF70479E
:1017480081B002490248016001B07047C0D401006D
:041758003400002039
:0817140081B0FEE701B070474F
:10171C0081B04EF68850CEF20000016841F47001A1
:10172C00016000BF00BF00BF00BFF1EE100A40F423
:0A173C004000E1EE100A01B0704712
:101BCC0000B5DFF814B0DFF814A0DFF814C0FFF78D
:101BDC003DFD00BD704700BF000000202800002024
:041BEC00A41B000036
:101C4C0000B5DFF810B0DFF810A0FFF7D3FC00BD33
:0C1C5C00704700BF00000020480000207E
:1018B00000F00540400040050100000000F0054038
:1018C0008000400501000000000000000000000052
:1018D0000000000000000000000000000000000008
:1018E00000000000000000000000000000000000F8
:1018F00000000000000000000000000000000000E8
:1019000000000000000000000000000000000000D7
:1019100000000000000000000000000000000000C7
:1019200000000000000000000000000000000000B7
:1019300000000000000000000000000000000000A7
:101940000000000000000000000000000000000097
:101950000000000000000000000000000000000087
:101960000000000000000000000000000000000077
:101970000000000000000000000000000000000067
:0C19800000000000000000000200000059
:10198C0000B00540100040050100000000B005400B
:10199C0020004005010000000000000000000000D5
:1019AC00000000000000000000000000000000002B
:1019BC00000000000000000000000000000000001B
:1019CC00000000000000000000000000000000000B
:1019DC0000000000000000000000000000000000FB
:1019EC0000000000000000000000000000000000EB
:1019FC0000000000000000000000000000000000DB
:101A0C0000000000000000000000000000000000CA
:101A1C0000000000000000000000000000000000BA
:101A2C0000000000000000000000000000000000AA
:101A3C00000000000000000000000000000000009A
:101A4C00000000000000000000000000000000008A
:0C1A5C000000000000000000020000007C
:101A680000A00540100040050100000000A005404E
:101A780020004005010000000000000000000000F8
:101A8800000000000000000000000000000000004E
:101A9800000000000000000000000000000000003E
:101AA800000000000000000000000000000000002E
:101AB800000000000000000000000000000000001E
:101AC800000000000000000000000000000000000E
:101AD80000000000000000000000000000000000FE
:101AE80000000000000000000000000000000000EE
:101AF80000000000000000000000000000000000DE
:101B080000000000000000000000000000000000CD
:101B180000000000000000000000000000000000BD
:101B280000000000000000000000000000000000AD
:0C1B38000000000000000000020000009F
:101B44004110000005100000F90F0000ED0F000027
:101B54001110000035100000291000001D100000B5
:101B64006D140000851400009D1400009114000001
:101B7400F10E0000890E00007D0E0000AD0E000085
:101B8400A10E0000950E00008D0F0000990F0000BB
:101B9400750F0000810F0000A50F0000C90F0000A1
:101BA40000566F6C74617365207265647563656457
:101BB40020746F20333330306D56002D2D2D204985
:081BC4006E6974202D2D2D0027
:00000001FF
