:02000004000BEF
:10000000FCFF002039110B00E1100B00E1100B0088
:10001000E1100B00E1100B00E1100B00E1100B00F0
:10002000E1100B00E1100B00E1100B00E1100B00E0
:10003000E1100B00E1100B00E1100B00E1100B00D0
:10004000E1100B00E1100B00E1100B00E1100B00C0
:10113800FFF7D6FF00F010F8FFF7E4FF00F026F9FC
:1011480000F05AF800F0E2F8FFF7A4FFFFF772FF8B
:08115800FFF788FFFCE7FEE74A
:1010280081B01CF8019B0BF8019BBBEB0A0FF8D1B0
:0410380001B070474C
:100FD40081B04FF000094FF0000CBDEB0A0F04DCA8
:100FE400BDEB0B0F01DBD446EA464BF8049BBBEB8D
:100FF4000A0FFAD1BCEB0A0F05DDE246D9F800B0BE
:0A1004000BF1040BF1E701B0704797
:10109C0081B0CDF800E0012202210020FFF70CFF07
:1010AC00002201210020FFF707FF42F280510120AE
:1010BC00FFF7EAFE46F6FE17C0F2180700BF00BFA6
:1010CC007F1EFDD100BF00BF00BFDDF800E001B006
:0210DC0070475B
:100EC40081B0CDF800E05FFA81F95FFA82FA0FE0B1
:100ED4005FFA8AF15FFA89F0FFF768FE0DE05FFAC6
:100EE4008AF15FFA89F0FFF77FFD06E0012004E054
:100EF4000028EDD00128F2D0F8E7DDF800E001B0D9
:020F0400704734
:100BB00081B0CDF800E0A9E0012905D140F20101A2
:100BC0006548FFF795FD04E040F201016248FFF738
:100BD00081FDBBE0012905D140F220015F48FFF70C
:100BE00087FD04E040F220015C48FFF773FDADE0B3
:100BF000012905D140F208015948FFF779FD04E0C9
:100C000040F208015648FFF765FD9FE0012905D134
:100C100040F210015348FFF76BFD04E040F2100171
:100C20005048FFF757FD91E0012905D140F24001FE
:100C30004C48FFF75DFD04E040F240014948FFF7F2
:100C400049FD83E0012905D140F210014448FFF736
:100C50004FFD04E040F210014148FFF73BFD75E015
:100C6000012905D140F210013F48FFF741FD04E0A2
:100C700040F210013C48FFF72DFD67E0012905D146
:100C800040F201013748FFF733FD04E040F2010173
:100C90003448FFF71FFD59E0012905D140F220013A
:100CA0003248FFF725FD04E040F220012F48FFF70E
:100CB00011FD4BE0012905D140F210012B48FFF74F
:100CC00017FD04E040F210012848FFF703FD3DE066
:100CD000012905D140F201012548FFF709FD04E093
:100CE00040F201012248FFF7F5FC2FE0012905D170
:100CF00040F280011A48FFF7FBFC04E040F280015B
:100D00001748FFF7E7FC21E0012020E000283FF42E
:100D100053AF01283FF45EAF02283FF469AF0328C8
:100D20003FF474AF04283FF47FAF05283FF48AAF47
:100D300006283FF495AF0728A0D00828ACD0092892
:100D4000B8D00A28C4D00B28D0D0DDE70020DDF8C9
:100D500000E001B0704700BF00120840801008405A
:100D60000010084060100840601108400011084061
:040D70002010084007
:1006F00081B0CDF800E0044AC9B2FFF795FEDDF8FD
:0C07000000E001B0704700BF00041000D2
:1004280081B01446314B984203D8314B984200D3DF
:1004380000E058E02E4BC31A03F01F0303B152E04B
:10044800064600F5A0624FF6FF7304EA0303184658
:10045800284B04EA03031B0C40F20008CFB2014604
:100468001846B8F1080F3ED201231BB203FA08F36D
:100478001BB21CB207EA0403A34231D101F4405372
:100488008BB14FEA8803F5182C686FF4405304EADF
:1004980003032B604FEA8803F51801F440542B68D6
:1004A80023432B601CE04FEA8803F5182C68114B96
:1004B80004EA03032B604FEA8803F41823680B430C
:1004C80023604FEA8803D5182C686FF0FF0304EA0D
:1004D80003032B604FEA8803D4182368034323607F
:1004E80008F10108BDE701B0704700BFC01208401D
:0804F800001008400000FFFFA6
:1006D40081B0CDF800E0044AC9B2FFF7A3FEDDF80B
:0C06E40000E001B0704700BF00062000DD
:1009EC0081B0CDF800E0A9E0012905D140F2020167
:1009FC006548FFF777FE04E040F202016248FFF71A
:100A0C0063FEBBE0012905D140F220015F48FFF7EE
:100A1C0069FE04E040F220015C48FFF755FEADE0B2
:100A2C00012905D140F208015948FFF75BFE04E0AB
:100A3C0040F208015648FFF747FE9FE0012905D117
:100A4C0040F210015348FFF74DFE04E040F2100154
:100A5C005048FFF739FE91E0012905D140F24001E1
:100A6C004C48FFF73FFE04E040F240014948FFF7D5
:100A7C002BFE83E0012905D140F210014448FFF719
:100A8C0031FE04E040F210014148FFF71DFE75E015
:100A9C00012905D140F204013D48FFF723FE04E093
:100AAC0040F204013A48FFF70FFE67E0012905D137
:100ABC0040F204013848FFF715FE04E040F204014F
:100ACC003548FFF701FE59E0012905D140F220011C
:100ADC003248FFF707FE04E040F220012F48FFF7F1
:100AEC00F3FD4BE0012905D140F210012B48FFF733
:100AFC00F9FD04E040F210012848FFF7E5FD3DE068
:100B0C00012905D140F201012548FFF7EBFD04E076
:100B1C0040F201012248FFF7D7FD2FE0012905D152
:100B2C0040F280011A48FFF7DDFD04E040F280013D
:100B3C001748FFF7C9FD21E0012020E000283FF411
:100B4C0053AF01283FF45EAF02283FF469AF03288E
:100B5C003FF474AF04283FF47FAF05283FF48AAF0D
:100B6C0006283FF495AF0728A0D00828ACD0092858
:100B7C00B8D00A28C4D00B28D0D0DDE70020DDF88F
:100B8C0000E001B0704700BF001208408010084020
:100B9C000010084060100840201108400011084067
:040BAC0020100840CD
:100E940081B0CDF800E009E00846FFF791FD0AE0D3
:100EA4000846FFF791FF06E0012004E00028F3D094
:0E0EB4000128F5D0F8E7DDF800E001B0704746
:1009C40081B0CDF800E0002300220321FFF7AEFD43
:1009D400034A04490A600020DDF800E001B07047D2
:0809E400750D0B002800002036
:1005300084B0CDF800E01FFA82FB1FFA83FC002292
:100540008DF80420ADF8081003904A48FFF746FFE5
:100550000398BDF808109DF80420ADF8041002902F
:10056000FFF7DAFF0298BDF804100025424C257011
:100570000025424C2570B0F5E13F06D9404CA04221
:1005800003D83F4CB4FBF0F308E0B0F5E13F04D8EA
:100590004FF4E134B4FBF0F300E00123ADF80410B4
:1005A0000290FFF7ADFF0298BDF8041003F0FF04BE
:1005B000E5B2344C25701C0A04F07F04E5B2324CDD
:1005C0002570B0F5E13F06D92F4C247844F0800522
:1005D0002D4C257005E02C4C247804F07F052A4C26
:1005E0002570ADF80410FFF797FFBDF80410002543
:1005F000264C25700BE042F00100C0B20EE042F044
:100600000200C0B20AE042F00300C0B206E00129D5
:10061000F1D00229F3D00329F5D0F4E74FEA8C0496
:10062000A4B240EA04044FEACB05ADB2E4B22C43D5
:10063000E4B204F07F05154C25700025144C25709C
:100640000025144C2570144D144C2560144D154C88
:100650002560154D154C2560154D164C2560164C22
:10066000247844F00105144C2570DDF800E004B056
:10067000704700BF24120B00F0270F4001240F40E9
:1006800060E3160000240F4001240F4003240F40B4
:1006900004240F4002240F40FFFFFFFF3C00002016
:1006A000750D0B0040000020FFFFFFFF44000020FD
:0C06B000FFFFFFFF4800002030270F4034
:1003DC0081B0CDF800E040F2000A81464FEA8A0174
:1003EC0009EB01010968B1F1FF3F12D009F13401A9
:1003FC004FEA8A03C91809680A4609EB0301096820
:10040C0008461146FFF7C8FF0AF1010A1FFA8AFADB
:0A041C00E4E7DDF800E001B07047EE
:1003A40082B0CDF800E000F0FF02130902F00F0262
:1003B4001446D8B2FFF778FF012212B2A240ADF87A
:1003C400042000460A469DF8041000F02BF8DDF8DE
:0603D40000E002B07047DA
:1002AC0081B027E028484DE028484BE0284849E039
:1002BC00284847E0284845E0284843E0284841E0E2
:1002CC0028483FE028483DE028483BE0284839E0F2
:1002DC00284837E0284835E0284833E0284831E002
:1002EC0028482FE028482DE028482BE0284829E012
:1002FC00284827E00028D5D00128D5D00228D5D011
:10030C000328D5D00428D5D00528D5D00628D5D09B
:10031C000728D5D00828D5D00928D5D00A28D5D07B
:10032C000B28D5D00C28D5D00D28D5D00E28D5D05B
:10033C000F28D5D01028D5D01128D5D01228D5D03B
:10034C001328D5D001B07047001008402010084089
:10035C00401008406010084080100840A010084071
:10036C00C0100840E010084000110840201108405F
:10037C00401108406011084080110840A01108404D
:10038C00C0110840E011084000120840201208403B
:08039C00401208406012084005
:1005180081B00448007800F07F010248017001B002
:08052800704700BF03240F40DF
:1005000081B00448007840F080010248017001B0D9
:08051000704700BF03240F40F7
:100DCC0081B0CDF800E0002300220321FFF7AAFB3D
:100DDC00034A04490A600020DDF800E001B07047C6
:080DEC00750D0B00280000202A
:10103C0081B0CDF800E00848FFF7BCFF0120FFF7B6
:10104C00A1FFFFF7ABFF05480221FFF763FFDDF8B7
:10105C0000E001B0704700BF8C120B0000000020B4
:100FC00081B0CDF800E0FFF7F1FEDDF800E001B000
:020FD000704768
:100DAC0000F2300108310A6803490A60011D0A6823
:100DBC0002490A60704700BF2C0000203000002060
:100F900081B0CDF800E0034C2468A047DDF800E004
:080FA00001B070473000002091
:100D740082B0CDF800E08DF80400FFF7CBFB084902
:100D8400097801F02001C9B201B9F8E79DF804100F
:100D940001F0FF0203490A70DDF800E002B0704779
:080DA40005240F4000240F405C
:10098C0082B0CDF800E08DF80400FFF791FE084925
:10099C00097801F02001C9B201B9F8E79DF80410FB
:1009AC0001F0FF0203490A70DDF800E002B0704765
:0809BC0005280F4000280F4040
:1006BC0081B00448007800F07F010248017001B05D
:0806CC00704700BF03280F4036
:10094C00024A117860F3000111707047901308404F
:10093C00024A117860F34511117070478413084016
:10092C00024A117860F3C3011170704780130840BC
:10097C00024A117860F30411117070478313084018
:10096C00024A117860F386111170704783130840A6
:10095C00024A117860F3041111707047801308403B
:100DF400024A117860F30411117070478B13084094
:100E7400024A117860F3000111707047831308402F
:100E8400024A117860F345111170704788130840C5
:100E6400024A117860F30411117070478813084026
:100E2400024A117860F30001117070478113084081
:100E1400024A117860F3C7111170704780130840BB
:100E0400024A117860F34101117070479013084051
:100E5400024A117860F3C711117070478413084077
:100E4400024A117860F34511117070478E130840FF
:100E3400024A117860F3041111707047831308405B
:10091C00024A117860F386111170704783130840F6
:10075C00024A117860F3041111707047801308403D
:1007EC00024A117860F3820111707047801308403F
:1007DC00024A117860F38201117070478913084046
:10080C00024A117860F34511117070478813084043
:1007FC00024A117860F30411117070478813084095
:10079C00024A117860F30001117070478113084010
:1007AC00024A117860F3C71111707047801308402A
:100FA80042F2FE37C0F2F40700BF00BF7F1EFDD13A
:080FB80000BF00BF00BF70473D
:100F200083B0CDF800E0024610460D228DF808206F
:100F30000A228DF809201FE0FFF740FC23E0027829
:100F40002AB10190FFF73AFC0198401CF7E71AE03C
:100F500002782AB10190FFF731FC0198401CF7E7B5
:100F600002AA1046FFF72AFC0DF109021046FFF70E
:100F700025FC08E0062007E00029DDD00129DED0AD
:100F80000229E5D0F6E70020DDF800E003B0704765
:1007BC0081B0CDF800E00178CCB2E0B2034C2468F3
:1007CC00A0470020DDF800E001B0704728000020B1
:10106C0081B0CDF800E0FFF749FF0749087001286F
:10107C0005D106480221FFF74DFFFFF78FFFDDF882
:10108C0000E001B0704700BF0D0000200E000020F2
:100F080081B0CDF800E0034C2468A047DDF800E08C
:080F180001B070472C0000201D
:10078C0002480178C1F30000704700BF1013084005
:10072C0002480178C1F34010704700BF0413084021
:10073C0002480178C1F3C000704700BF00130840A5
:10071C0002480178C1F30010704700BF0313084072
:10070C0002480178C1F38010704700BF0313084002
:10076C0002480178C1F30010704700BF0013084025
:10077C0002480178C1F30010704700BF0B1308400A
:10074C0002480178C1F30000704700BF0313084052
:1008BC0002480178C1F34010704700BF081308408C
:1008CC0002480178C1F30010704700BF08130840BC
:10089C0002480178C1F30000704700BF0113084003
:1008AC0002480178C1F3C010704700BF0013084024
:1008FC0002480178C1F34000704700BF1013084054
:10090C0002480178C1F3C010704700BF04130840BF
:1008DC0002480178C1F34010704700BF0E13084066
:1008EC0002480178C1F30010704700BF03130840A1
:10083C0002480178C1F38010704700BF03130840D1
:10084C0002480178C1F30010704700BF0013084044
:10081C0002480178C1F38000704700BF0013084004
:10082C0002480178C1F38000704700BF09130840EB
:10087C0002480178C1F34010704700BF08130840CC
:10088C0002480178C1F30010704700BF08130840FC
:10085C0002480178C1F30000704700BF0113084043
:10086C0002480178C1F3C010704700BF0013084064
:1011600081B0CDF800E01F4B1F4A204C204800689A
:1011700040F002011E480160012A08D0032A06D06F
:10118000042A04D0102A02D0302A00D002E01948E4
:10119000026002E0012117480160C4F3C002164951
:1011A000086862F3C3000860C4F38002124908684B
:1011B00062F382000860C4F340020F49086862F3DA
:1011C00041000860C4F300020B49086862F30000A4
:1011D0000860FFF71DFF09480360DDF800E001B07B
:1011E000704700BFE00100000100000000000000A7
:1011F00008E000E00401084008A40040080108409D
:1010100046F6FE17C0F2180700BF00BF7F1EFDD1C5
:0810200000BF00BF00BF7047D4
:1012000081B004490448016004490548016001B007
:10121000704700BF80BB00003400002000000000C9
:041220003800002072
:0810E00081B0FEE701B070478A
:10110C0081B04EF68850CEF20000016841F47001B7
:10111C00016000BF00BF00BF00BFF1EE100A40F439
:0A112C004000E1EE100A01B0704728
:1010E80081B0DFF81000DFF810100860D0F800D0E9
:1010F80000F004B800000B0008ED00E000BF01B0EC
:0211080070472E
:1013140000B5DFF814B0DFF814A0DFF814C0FFF74D
:1013240081FE00BD704700BF00000020280000209F
:04133400EC120B00AC
:1013940000B5DFF810B0DFF810A0FFF719FE00BDAC
:0C13A400704700BF000000204C0000203B
:101224008500000084000000FFFFFFFF00000000B5
:1012340000000000000000000000000000000000AA
:10124400000000000000000000000000000000009A
:10125400000000000010000000100000000000006A
:10126400000000000000000000000000000000007A
:10127400000000000000000000000000000000006A
:08128400000000000000000062
:10128C004D090B003D090B002D090B007D090B00CE
:10129C006D090B005D090B00F50D0B00750E0B00B5
:1012AC00850E0B00650E0B00250E0B00150E0B00AA
:1012BC008D070B002D070B003D070B001D070B00C6
:1012CC000D070B006D070B007D070B004D070B0086
:1012DC00BD080B00CD080B009D080B00AD080B00E2
:0E12EC002D2D2D20496E6974202D2D2D000012
:1012FA00566F6C74617365207265647563656420EA
:0A130A00746F20333330306D56004D
:00000001FF
