:10000000FCFF0020ED150000A5150000A51500005F
:10001000A5150000A5150000A5150000A5150000F8
:10002000A5150000A5150000A5150000A5150000E8
:10003000A5150000A5150000A5150000A5150000D8
:10004000A5150000A5150000A5150000A5150000C8
:10005000A5150000A5150000A5150000A5150000B8
:10006000A5150000A5150000A5150000A5150000A8
:10007000A5150000A5150000A5150000A515000098
:10008000A5150000A5150000A5150000A515000088
:10009000A5150000A5150000A5150000A515000078
:1000A000A5150000A5150000A5150000A515000068
:1000B000A5150000A5150000A5150000A515000058
:1000C000A5150000A5150000A5150000A515000048
:1000D000A5150000A5150000A5150000A515000038
:1000E000A5150000A5150000A5150000A515000028
:1000F000A5150000A5150000A5150000A515000018
:1015EC0000F010F8FFF7DCFF00F0C8FAFFF7EEFF91
:1015FC0000F084FAFFF7AEFFFFF77AFFFFF790FFDA
:04160C00FCE7FEE712
:1014E80081B01CF8019B0BF8019BBBEB0A0FF8D1EC
:0414F80001B0704788
:1014880081B04FF000094FF0000CBDEB0A0F04DCEF
:10149800BDEB0B0F01DBD446EA464BF8049BBBEBD4
:1014A8000A0FFAD1BCEB0A0F05DDE246D9F800B005
:0A14B8000BF1040BF1E701B07047DF
:1015600081B0CDF800E0012202210020FFF7FEFE4D
:10157000002201210020FFF7F9FE42F280510120F4
:10158000FFF7D6FE44F67D77C0F2120700BF00BF1A
:101590007F1EFDD100BF00BF00BFDDF800E001B03D
:0215A000704792
:10136C0081B0CDF800E05FFA81F95FFA82FA0FE004
:10137C005FFA8AF15FFA89F0FFF770FE0DE05FFA11
:10138C008AF15FFA89F0FFF781FD06E0012004E0A5
:10139C000028EDD00128F2D0F8E7DDF800E001B02C
:0213AC00704788
:1010680081B0CDF800E0A9E0012905D140F20101E5
:101078006548FFF7A7FD04E040F201016348FFF768
:10108800EFFDBBE0012905D140F240016048FFF7C0
:1010980099FD04E040F240015E48FFF7E1FDADE054
:1010A800012905D140F201015948FFF78BFD04E001
:1010B80040F201015748FFF7D3FD9FE0012905D110
:1010C80040F220015448FFF77DFD04E040F2200182
:1010D8005248FFF7C5FD91E0012905D140F2800192
:1010E8004D48FFF76FFD04E040F280014B48FFF7E1
:1010F800B7FD83E0012905D140F240014648FFF7DA
:1011080061FD04E040F240014448FFF7A9FD75E0A5
:10111800012905D140F280014148FFF753FD04E061
:1011280040F280013F48FFF79BFD67E0012905D1A8
:1011380040F210013A48FFF745FD04E040F2100183
:101148003848FFF78DFD59E0012905D140F2040127
:101158003548FFF737FD04E040F204013348FFF754
:101168007FFD4BE0012905D140F208012E48FFF729
:1011780029FD04E040F208012C48FFF771FD3DE02D
:10118800012905D140F220011F48FFF71BFD04E0AB
:1011980040F220011D48FFF763FD2FE0012905D12A
:1011A80040F210011848FFF70DFD04E040F210016D
:1011B8001648FFF755FD21E0012020E000283FF404
:1011C80053AF01283FF45EAF02283FF469AF03280C
:1011D8003FF474AF04283FF47FAF05283FF48AAF8B
:1011E80006283FF495AF0728A0D00828ACD00928D6
:1011F800B8D00A28C4D00B28D0D0DDE70020DDF80D
:1012080000E001B0704700BF414C0040434C004033
:10121800404C0040424C0040004C0040024C004012
:10122800014C0040034C0040204C0040224C004040
:100BCC0081B0CDF800E0002424B240F240031BB207
:100BDC0040F2040212B242EA03031BB240F20102D9
:100BEC0012B243EA020293B2002210B4FFF786FD60
:0A0BFC0001B0DDF800E001B0704721
:1007080083B0CDF800E08DB20146D0B2BDF90C201F
:1007180001F0010414B12F02BFB200E0AFB28F4C58
:100728000C1B640965018D4C6419A0468C4CA042D1
:1007380007D108F10406FD43ADB234882C4034805B
:1007480007E0884CA04204D108F104052C883C43FA
:100758002C8040F2010403EA0404A4B23CB108F17D
:100768000606FD43ADB234882C4034800AE040F2DE
:10077800020403EA0404A4B224B108F106052C8893
:100788003C432C8040F2040403EA0404A4B23CB1C4
:1007980008F10806FD43ADB234882C4034800AE0E5
:1007A80040F2080403EA0404A4B224B108F10805DD
:1007B8002C883C432C8040F2100403EA0404A4B2C1
:1007C8003CB108F11806FD43ADB234882C403480A2
:1007D8000AE040F2200403EA0404A4B224B108F1B8
:1007E80018052C883C432C8040F2400403EA04049A
:1007F800A4B23CB108F11A06FD43ADB234882C40CE
:1008080034800AE040F2800403EA0404A4B224B16C
:1008180008F11A052C883C432C8003F48074A4B298
:100828007CB908F10A06FD43ADB234882C40348007
:1008380008F10C06FD43ADB234882C40348000200A
:1008480087E01F2A01DD012083E0FFF74BFF00202E
:10085800B9B2C7B24046102F80F07A8021FA07F467
:10086800A4B204F00104A4B2002C00F06E8000F2DF
:100878000A06CD43ADB234882C40348000F20C0611
:10088800CD43ADB234882C40348003F48064A4B2E4
:100898002CB1ADF806100024ADF808400DE003F4C3
:1008A8000064A4B22CB10024ADF80640ADF80810DD
:1008B80003E0ADF80610ADF8081000F20A06358816
:1008C800BDF8064045EA0404348000F20C06358879
:1008D800BDF8084045EA04043480234C041B64092D
:1008E800ADF80440214CA24218D0BDF80440E40001
:1008F800A4B265001E4C65197C08E4B264002E1988
:1009080007F00104E4B2E5002DB240F2FF04AC4068
:10091800A4B2E543ADB234882C403480BDF804401D
:10092800E400A4B26500124C65197C08E4B26400C6
:100938002E1907F00104E4B2E5002DB294B204FACE
:1009480005F5ADB234882C4334807F1CFFB282E7B2
:100958000020DDF800E003B0704700BF004C004005
:100968000000000001000000004C004000000000F2
:0409780008500040E3
:1006EC0081B042F652510348018002210248018038
:0C06FC0001B07047005000400250004068
:100C680081B0CDF800E0002424B240F240031BB26A
:100C780040F2040212B242EA03031BB240F201023C
:100C880012B243EA020293B2012210B4FFF738FD10
:0A0C980001B0DDF800E001B0704784
:100E980081B0CDF800E0A9E0012905D140F20801B0
:100EA8006548FFF78FFE04E040F208016348FFF74A
:100EB800D7FEBBE0012905D140F280016048FFF769
:100EC80081FE04E040F280015E48FFF7C9FEADE014
:100ED800012905D140F204015B48FFF773FE04E0E5
:100EE80040F204015948FFF7BBFE9FE0012905D1F4
:100EF80040F220015648FFF765FE04E040F2200169
:100F08005448FFF7ADFE91E0012905D140F2800178
:100F18004F48FFF757FE04E040F280014D48FFF7C5
:100F28009FFE83E0012905D140F240014848FFF7C0
:100F380049FE04E040F240014648FFF791FE75E0A3
:100F4800012905D140F240014348FFF73BFE04E088
:100F580040F240014148FFF783FE67E0012905D1CF
:100F680040F240013648FFF72DFE04E040F2400110
:100F78003448FFF775FE59E0012905D140F2040114
:100F88003548FFF71FFE04E040F204013348FFF73D
:100F980067FE4BE0012905D140F208012E48FFF712
:100FA80011FE04E040F208012C48FFF759FE3DE02D
:100FB800012905D140F220012148FFF703FE04E092
:100FC80040F220011F48FFF74BFE2FE0012905D111
:100FD80040F210011A48FFF7F5FD04E040F2100155
:100FE8001848FFF73DFE21E0012020E000283FF4EB
:100FF80053AF01283FF45EAF02283FF469AF0328DE
:101008003FF474AF04283FF47FAF05283FF48AAF5C
:1010180006283FF495AF0728A0D00828ACD00928A7
:10102800B8D00A28C4D00B28D0D0DDE70020DDF8DE
:1010380000E001B0704700BF214C0040234C004045
:10104800414C0040434C0040404C0040424C004062
:10105800004C0040024C0040014C0040034C004052
:1013300081B0CDF800E00DE00846FFF79BFD10E01E
:101340000846FFF779FF0CE00846FFF79DFF08E02D
:10135000012006E00028EFD00128F1D01028F3D0BA
:0A136000F6E7DDF800E001B0704789
:100E740081B0CDF800E0FFF7C5FE044A04490A60DA
:100E84000020DDF800E001B0704700BFF10A000067
:040E9400300000200A
:100C080081B0CDF800E084460B4A0C490A600C4AD2
:100C18000C490A600C4A0D490A600D4A0D490A60E0
:100C28000D48FFF7EDFE61460C48FFF7A3FEDDF81F
:100C380000E001B0704700BFF10A00004800002042
:100C4800FFFFFFFF4C000020FFFFFFFF50000020C8
:100C5800FFFFFFFF540000200C190000001800409F
:100A080081B0CDF800E040F2000A814609F1D80132
:100A180009788A453AD20C210AFB01F109EB010158
:100A28008B460BF1080109781F2915D10BF1080134
:100A38000978CCB20BF1060109888BB20BF10401DD
:100A480009888AB2DBF80010084691B2002210B477
:100A5800FFF756FE01B014E00BF108010978CCB29B
:100A68000BF1060109888BB20BF1040109888AB2DF
:100A7800DBF80010084691B2FF2210B4FFF740FEE1
:100A880001B00AF1010A5FFA8AFABFE7DDF800E06F
:040A980001B07047F2
:10097C0081B0CDF800E007460C463846FFF79AFDEB
:10098C0040F280013846FFF79DFD40F200013846E9
:10099C00FFF772FD40F200013846FFF77BFD40F295
:1009AC0000013846FFF75AFE40F200013846FFF7C7
:1009BC007BFE40F200013846FFF790FD2146384699
:1009CC00FFF79CFD3846FFF781FEDDF800E001B033
:0209DC00704762
:0E04C00081B0018841F00101018001B0704758
:1004D00081B003884FF63F7203EA0202028002886D
:0804E0000A43028001B07047DD
:1004840081B031B903884DF6FF7203EA020202809B
:0C04940002E002880A43028001B07047B9
:1004A00081B0B1F5006F03D102880A43028005E0F4
:1004B00003884FF2FF7203EA0202028001B0704724
:1006680081B019E0038847F6FF7203EA02020280AC
:1006780019E0028842F40042028002880A4302809C
:1006880011E0028842F40042028003884BF6FF72B0
:1006980003EA0202028006E00029E3D0B1F5804FA8
:0A06A800E7D00029EDD001B0704743
:1006B40081B0B1F5807F04D1028842F48072028057
:1006C40005E003884FF6FF6203EA0202028001B0EC
:0206D40070476D
:1004E80081B0B1F5805F03D102880A43028005E03C
:1004F80003884EF6FF7203EA0202028001B07047D9
:1005080088B0CDF800E005460E4604AA1046FFF76D
:10051800E9FE04AA11462846FFF73CFF00EE900AC0
:10052800F8EE600A00EE106AB8EE400A80EE800A23
:10053800B0EE401A01AA1046FFF748FFDDED010AA8
:10054800FCEE600A10EE902A92B291B2414A00EE97
:10055800902A20EE200ABCEE400A10EE100A80B263
:1005680005F2080423884FF6FE7203EA020222808D
:1005780010292ED905F208031A8842F001021A80C0
:10058800B3EE000A81EE000ABCEE400A10EE102A13
:1005980092B2ADF80820B3EE000AC1EE000AB3EE3D
:1005A800000A81EE000ABCEE400A10EE102A92B250
:1005B80000EE102AB8EE400A70EEC00AB3EE000A48
:1005C80020EE800ABCEE400A10EE102A92B2ADF876
:1005D8000A2020B90022ADF80C20284616E0012494
:1005E8002946242C11D263001B4AD2181288904243
:1005F80008D2621E12B25300184AD2181288ADF8F7
:100608000C2002E0641CE4B2EBE70846831D0022DC
:100618001A80841D2388BDF8082043EA020222803C
:1006280000F208031A8802F001021A8000F2080496
:10063800BDF80C2013029BB2BDF80A20120192B239
:1006480013439BB222881A432280DDF800E008B0E9
:10065800704700BF00401C46901A0000481A00006E
:1002EC0082B0CDF800E004462849096801F4E061C9
:1002FC00090A08462549096801F0E061090E0A4619
:10030C00214601911146FFF751FF019908601F49E1
:10031C00096801F07001090908461C49096801F4D3
:10032C00E001090D0A4604F2080101911146FFF79C
:10033C003DFF019908601549096801F07001090930
:10034C0008461249096801F0E041090F0A4604F217
:10035C000C0101911146FFF729FF019908600B4927
:10036C00096801F0070108460849096801F4E02111
:10037C00090C0A46211D01911146FFF717FF01993F
:10038C000860DDF800E002B0704700BF08040140CF
:1001B80081B0CDF800E002460846FFF7B3FFC3B2AE
:1001C80071E0424A126802F00102D2B140F2010025
:1001D800FFF792FF3D4A126802F001028AB13C4AD9
:1001E800126802F400422AB14FF4FA3292FBF3F299
:1001F800104666E048F20002B2FBF3F292B290B207
:100208005FE0344A1268B2FBF3F2104659E02F4A15
:10021800126802F00202D2B140F20200FFF76CFF4E
:100228002A4A126802F002028AB1294A126802F4C4
:1002380000422AB14FF4FA3292FBF3F2104640E042
:1002480048F20002B2FBF3F292B290B239E0224ACD
:100258001268B2FBF3F2104633E0204A1268B2FB90
:10026800F3F210462DE01A4A126802F400422AB14D
:100278004FF4FA3292FBF3F2104622E048F2000201
:10028800B2FBF3F292B290B21BE0FFF753FFB0FB60
:10029800F3F2104615E0124A1268B2FBF3F2104668
:1002A8000FE000200DE0002A3FF48BAF052AAED006
:1002B800012AD2D0022AD6D0032AE6D0042AEAD0CC
:1002C800EFE7DDF800E001B0704700BF48040140E7
:1002D8003004014040000020440000202800002095
:0402E8002C000020C6
:10012C0081B0012109B2814009B208B201B0704717
:1001000081B0074A07490A600749096841EA0002C5
:1001100005490A60012203490A6001B0704700BF27
:0C0120005A690000000401405004014036
:10013C0082B01748006800F4E02114E015480190E3
:10014C0023E01548019020E0144801901DE014486C
:10015C0001901AE01348019017E01348019014E045
:10016C000020019011E00029E8D0B1F5803FE8D0E3
:10017C00B1F5003FE8D0B1F5403FE8D0B1F5802FA4
:10018C00E8D0B1F5A02FE8D0EAE7019802B07047AB
:10019C000404014060E31600C0C62D00808D5B0096
:0C01AC00001BB70000366E01006CDC0286
:10039C0081B0028802F0C00292B2920992B290B27D
:1003AC000AB900200EE0012802D10A68104609E0C3
:1003BC00022802D0032800D004E001F20C021268DB
:0803CC001046FFE701B0704785
:1003D40082B08DED010A9DED010AB5EEC00AF1EE81
:1003E40010FA0ADBDDED010AB7EE000AF4EEC00AEA
:1003F400F1EE10FA01DA012100E0002189B9DDED06
:10040400010ABFEE000AF4EEC00AF1EE10FA07DDAD
:100414009DED010AB5EEC00AF1EE10FA00DC00E031
:1004240008E04FF0000100EE101A00ED000A9DED07
:10043400010A23E001A90968C90D01F0FF017F3910
:1004440089B2182908D99DED010A00ED000A4FF080
:10045400000100EE101A11E09DED010ABDEE400A04
:1004640010EE101A00EE101AB8EEC00A00ED000AE1
:1004740050ED000A9DED010A30EE600A02B07047AB
:1006D80081B002884FF6FE7102EA0101018001B083
:0206E800704759
:1012380081B0CDF800E0FFF795FC044A04490A6044
:101248000020DDF800E001B0704700BFB90A0000D7
:041258003000002042
:100B6C0081B0CDF800E084460B4A0C490A600C4A6F
:100B7C000C490A600C4A0D490A600D4A0D490A607D
:100B8C000D48FFF73BFF61460C48FFF7F1FEDDF81F
:100B9C0000E001B0704700BFB90A00004800002017
:100BAC00FFFFFFFF4C000020FFFFFFFF5000002065
:100BBC00FFFFFFFF540000205417000000140040FA
:1012880081B0CDF800E0FFF73DFC044A04490A604C
:101298000020DDF800E001B0704700BF9D0A0000A3
:0412A80030000020F2
:100B0C0081B0CDF800E084460B4A0C490A600C4ACF
:100B1C000C490A600C4A0D490A600D4A0D490A60DD
:100B2C000D48FFF76BFF61460C48FFF721FFDDF81E
:100B3C0000E001B0704700BF9D0A00004800002093
:100B4C00FFFFFFFF4C000020FFFFFFFF50000020C5
:100B5C00FFFFFFFF54000020301800000010004081
:1014FC0081B0CDF800E00848FFF7A4FF0120FFF70A
:10150C005DFFFFF7AFFF05480221FFF763FFDDF832
:10151C0000E001B0704700BFE81900000000002097
:1014500081B0CDF800E0FFF707FFDDF800E001B054
:021460007047D3
:1012680000F2300108310A6803490A60011D0A6862
:1012780002490A60704700BF34000020380000208F
:1013C80081B0CDF800E0034C2468A047DDF800E0C8
:0813D80001B07047380000204D
:0C125C0001490870704700BF608809421B
:0C0E380001490870704700BF588809424B
:0C0E2C0001490870704700BF408809426F
:0C0E200001490870704700BF548009426F
:0C0E440001490870704700BF5C80094243
:0C0E680001490870704700BF5880094223
:0C0E5C0001490870704700BF7C8009420B
:0C0E500001490870704700BF7080094223
:0C12AC0001490870704700BF48840942E7
:0C130C0001490870704700BF4C84094282
:0C13000001490870704700BF7488094262
:0C13240001490870704700BF7088094242
:0C13180001490870704700BF6C84094256
:0C12D00001490870704700BF7C8809428B
:0C12C40001490870704700BF48880942CB
:0C12B80001490870704700BF54800942D3
:0C12F40001490870704700BF5C8009428F
:0C12E80001490870704700BF588009429F
:0C12DC0001490870704700BF788009428B
:0C0E140001490870704700BF788809424F
:0C0D300001490870704700BF688009424C
:0C0D3C0001490870704700BF6C8009423C
:0C0CEC0001490870704700BF748809427D
:0C0CF80001490870704700BF7088094275
:1014700041F6FD27C0F2B70700BF00BF7F1EFDD1B8
:0814800000BF00BF00BF704770
:1013E00083B0CDF800E0024610460D228DF80820AB
:1013F0000A228DF809201FE0FFF784FC23E0027821
:101400002AB10190FFF77EFC0198401CF7E71AE033
:1014100002782AB10190FFF775FC0198401CF7E7AC
:1014200002AA1046FFF76EFC0DF109021046FFF705
:1014300069FC08E0062007E00029DDD00129DED0A4
:101440000229E5D0F6E70020DDF800E003B07047A0
:100D040081B0CDF800E00178CCB2A0B2034C2468E5
:100D1400A0470020DDF800E001B07047300000205B
:100A9C0081B0CDF800E081B20348FFF79BFFDDF891
:0C0AAC0000E001B0704700BF00100040E7
:1009E00081B0ADF800100146BDF8000001F20A0226
:1009F000128802F0010292B202B1F7E701F20E0290
:060A0000108001B07047F8
:100AB80081B0CDF800E081B20348FFF78DFFDDF883
:0C0AC80000E001B0704700BF00140040C7
:100AF00081B0CDF800E081B20348FFF771FFDDF867
:0C0B000000E001B0704700BF001800408A
:100AD40081B0CDF800E081B20348FFF77FFFDDF875
:0C0AE40000E001B0704700BF001C0040A3
:10152C0081B0CDF800E0FFF73DFF074908700128B6
:10153C0005D106480221FFF74DFFFFF793FFDDF8B9
:10154C0000E001B0704700BF0D0000200E0000202D
:1013B00081B0CDF800E0034C2468A047DDF800E0E0
:0813C00001B070473400002069
:0C0D240001480078704700BF2088094299
:0C0CB00001480078704700BF1888094216
:0C0CA40001480078704700BF008809423A
:0C0CBC0001480078704700BF1480094216
:0C0CE00001480078704700BF1C800942EA
:0C0CD40001480078704700BF18800942FA
:0C0CC80001480078704700BF3C800942E2
:0C0DCC0001480078704700BF30800942E9
:0C0DD80001480078704700BF0884094201
:0C0DB40001480078704700BF0C84094221
:0C0DC00001480078704700BF34880942E9
:0C0DFC0001480078704700BF30880942B1
:0C0E080001480078704700BF2C840942AC
:0C0DE40001480078704700BF3C880942BD
:0C0DF00001480078704700BF08880942E5
:0C0D9C0001480078704700BF1480094235
:0C0D780001480078704700BF1C80094251
:0C0D840001480078704700BF1880094249
:0C0D900001480078704700BF388009421D
:0C0D540001480078704700BF3888094251
:0C0D480001480078704700BF2880094275
:0C0D6C0001480078704700BF2C8009424D
:0C0D600001480078704700BF3488094249
:0C0DA80001480078704700BF3088094205
:1016100083B0CDF800E0374B374C384D384E394F5A
:10162000394845F680213948018004F00700052833
:1016300004D004F07000502800D00BE0012252B218
:1016400033480280002149B232480180324802808A
:1016500032480180802132480160019502961E4681
:1016600025463A46029B019C2E48006800F4807093
:1016700000B1F9E72C492D48016001951146324629
:101680001D46019B2748006800F4807000B1F9E70F
:1016900027480160274801602749284801602848F9
:1016A000026028480360200D00F0070028B944F0CC
:1016B0000301254801602A4610E044F4803040F0E0
:1016C0000301214801602A462048006830B1FFF735
:1016D000FFFE012149B21E480160F5E700211748CD
:1016E000016042F4B44109480180DDF800E003B034
:1016F000704700BF00000500330000000300010038
:10170000840000000010000080BB00000C48004076
:101710004CA509428CA5094248A5094288A5094261
:10172000143004E00400014001005A690000014047
:1017300010100140141001405A69000000040140DB
:1017400004040140080401400C04014004892042C3
:04175000048A2042A5
:1014D00040F20907C0F2000700BF00BF7F1EFDD128
:0814E00000BF00BF00BF704710
:1015D80081B002490248016001B0704780BB000039
:0415E8003C000020A3
:0815A40081B0FEE701B07047C1
:1015AC0081B04EF68850CEF20000016841F4700113
:1015BC00016000BF00BF00BF00BFF1EE100A40F495
:0A15CC004000E1EE100A01B0704784
:101B080000B5DFF814B0DFF814A0DFF814C0FFF751
:101B1800E7FC00BD704700BF000000203000002037
:041B2800D81A0000C7
:101B880000B5DFF810B0DFF810A0FFF779FC00BD52
:0C1B9800704700BF000000205800002033
:10175400004C00400004050500000000004C00405F
:101764000008050500000000000000000000000063
:101774000000000000000000000000000000000065
:101784000000000000000000000000000000000055
:101794000000000000000000000000000000000045
:1017A4000000000000000000000000000000000035
:1017B4000000000000000000000000000000000025
:1017C4000000000000000000000000000000000015
:1017D4000000000000000000000000000000000005
:1017E40000000000000000000000000000000000F5
:1017F40000000000000000000000000000000000E5
:1018040000000000000000000000000000000000D4
:1018140000000000000000000000000000000000C4
:0C182400000000000000000002000000B6
:10183000004C00400400050500000000004C004082
:101840000800050500000000000000000000000086
:101850000000000000000000000000000000000088
:101860000000000000000000000000000000000078
:101870000000000000000000000000000000000068
:101880000000000000000000000000000000000058
:101890000000000000000000000000000000000048
:1018A0000000000000000000000000000000000038
:1018B0000000000000000000000000000000000028
:1018C0000000000000000000000000000000000018
:1018D0000000000000000000000000000000000008
:1018E00000000000000000000000000000000000F8
:1018F00000000000000000000000000000000000E8
:0C190000000000000000000002000000D9
:10190C00204C00400400050500000000204C004065
:10191C0008000505000000000000000000000000A9
:10192C0000000000000000000000000000000000AB
:10193C00000000000000000000000000000000009B
:10194C00000000000000000000000000000000008B
:10195C00000000000000000000000000000000007B
:10196C00000000000000000000000000000000006B
:10197C00000000000000000000000000000000005B
:10198C00000000000000000000000000000000004B
:10199C00000000000000000000000000000000003B
:1019AC00000000000000000000000000000000002B
:1019BC00000000000000000000000000000000001B
:1019CC00000000000000000000000000000000000B
:0C19DC00000000000000000002000000FD
:1019E8005D120000390E00002D0E0000210E0000CF
:1019F800450E0000690E00005D0E0000510E00004B
:101A0800AD1200000D1300000113000025130000A3
:101A1800250D0000B10C0000A50C0000BD0C000055
:101A2800E10C0000D50C0000C90C0000CD0D000031
:101A3800D90D0000B50D0000C10D0000FD0D00001E
:101A4800000001000200040008001000200011003E
:101A5800210022004400250049004A00520092005B
:101A680053005500AA006B00AD00B500B600D600C3
:101A7800B700BB00DD00ED00EE00BF00DF00EF00A7
:081A8800F700FB00FD00FE0069
:101A900000001102CB024303E903E4049605860625
:101AA0006308B008C709B80B070DF70DA90EA30FFF
:101AB000BE101A118A13531673176E1820190B1AB9
:101AC000591BEB1B4F1DB51E441F8D2010217C217F
:081AD0002F222C23D22348240D
:0E1AD8002D2D2D20496E6974202D2D2D00001E
:101AE600566F6C74617365207265647563656420F6
:0A1AF600746F20333330306D56005A
:041B000010270000AA
:041B040000366E0138
:00000001FF
