:10000000FCFF022049170000011700000117000043
:100010000117000001170000011700000117000080
:100020000117000001170000011700000117000070
:100030000117000001170000011700000117000060
:100040000117000001170000011700000117000050
:100050000117000001170000011700000117000040
:100060000117000001170000011700000117000030
:100070000117000001170000011700000117000020
:100080000117000001170000011700000117000010
:100090000117000001170000011700000117000000
:1000A00001170000011700000117000001170000F0
:1000B00001170000011700000117000001170000E0
:1000C00001170000011700000117000001170000D0
:1000D00001170000011700000117000001170000C0
:1000E00001170000011700000117000001170000B0
:1000F00001170000011700000117000001170000A0
:10010000011700000117000001170000011700008F
:10011000011700000117000001170000011700007F
:10012000011700000117000001170000011700006F
:10013000011700000117000001170000011700005F
:10014000011700000117000001170000011700004F
:10015000011700000117000001170000011700003F
:10016000011700000117000001170000011700002F
:10017000011700000117000001170000011700001F
:10018000011700000117000001170000011700000F
:08019000011700000117000037
:1017480000F010F8FFF7DCFF00F0C8FBFFF7EEFF32
:1017580000F084FBFFF77EFFFFF7B6FFFFF79CFF63
:04176800FCE7FEE7B5
:1016480081B01CF8019B0BF8019BBBEB0A0FF8D18A
:0416580001B0704726
:10160C0081B04FF000094FF0000CBDEB0A0F04DC69
:10161C00BDEB0B0F01DBD446EA464BF8049BBBEB4E
:10162C000A0FFAD1BCEB0A0F05DDE246D9F800B07F
:0A163C000BF1040BF1E701B0704759
:10165C0081B0CDF800E0012202210020FFF74CFF01
:10166C00002201210020FFF747FF42F280510120A8
:10167C00FFF71EFF40F6FE07C0F23D0700BF00BF9C
:10168C007F1EFDD100BF00BF00BFDDF800E001B040
:02169C00704795
:1015040081B0CDF800E05FFA81F85FFA82F916E065
:101514005FFA89F15FFA88F0FFF74EFD16E05FFA93
:1015240089F15FFA88F0FFF72BFE0FE05FFA89F18B
:101534005FFA88F0FFF75CFC08E0012006E0002871
:10154400E6D00128EBD00228F0D0F6E7DDF800E081
:0415540001B070472B
:100FBC0081B0CDF800E0A9E0012905D14FF0040182
:100FCC006548FFF70BFD04E04FF004016348FFF7A1
:100FDC0057FDBBE0012905D14FF400615E48FFF7D6
:100FEC00FDFC04E04FF400615C48FFF749FDADE007
:100FFC00012905D14FF010015948FFF7EFFC04E02F
:10100C004FF010015748FFF73BFD9FE0012905D138
:10101C004FF020015248FFF7E1FC04E04FF02001B3
:10102C005048FFF72DFD91E0012905D14FF08001CB
:10103C004B48FFF7D3FC04E04FF080014948FFF721
:10104C001FFD83E0012905D14FF040014448FFF713
:10105C00C5FC04E04FF040014248FFF711FD75E07C
:10106C00012905D14FF480613F48FFF7B7FC04E03C
:10107C004FF480613D48FFF703FD67E0012905D17E
:10108C004FF400513448FFF7A9FC04E04FF4005131
:10109C003248FFF7F5FC59E0012905D14FF0040166
:1010AC003348FFF79BFC04E04FF004013148FFF795
:1010BC00E7FC4BE0012905D14FF008012C48FFF764
:1010CC008DFC04E04FF008012A48FFF7D9FC3DE005
:1010DC00012905D14FF480712548FFF77FFC04E00E
:1010EC004FF480712348FFF7CBFC2FE0012905D189
:1010FC004FF400711E48FFF771FC04E04FF40071CF
:10110C001C48FFF7BDFC21E0012020E000283FF443
:10111C0053AF01283FF45EAF02283FF469AF0328B8
:10112C003FF474AF04283FF47FAF05283FF48AAF37
:10113C0006283FF495AF0728A0D00828ACD0092882
:10114C00B8D00A28C4D00B28D0D0DDE70020DDF8B9
:10115C0000E001B0704700BF50F00F4040F00F406E
:10116C0090F00F4080F00F4010F00F4000F00F4057
:08117C00D0F00F40C0F00F405D
:1009E80081B0CDF800E0034AFFF7C4FFDDF800E06E
:0809F80001B070470401020088
:10097C0081B0CDF800E0FFF7BBFEDDF800E001B080
:02098C007047B2
:1006FC0083B0CDF800E006460C4615463046FFF7B1
:10070C0087FE40F2FF1306EA03008009002622460A
:10071C002946202E39D24FF0010303FA06F402EADF
:10072C0004031F46A3422ED104031A4B1C19B30019
:10073C00E51801952C68184B04EA03032B60174B42
:10074C0001EA0304019B1B6843EA0404019B1C603F
:10075C0001F48033B3F5803F15D08401104B1B1985
:10076C001433029301F400333BB1FC43029B1B682E
:10077C0003EA0404029B1C6005E0029B1B6843EA2D
:10078C000704029B1C60761CC3E7DDF800E003B095
:10079C00704700BF009004400000FFFFFFFF000007
:0407AC0000F00F400A
:10041C0081B040F2FF1100EA01018909084600F29F
:10042C0009024FF0010101FA02F20449096841EA9C
:10043C00020202490A6001B0704700BF38800440D4
:100A8C0081B0CDF800E0034AFFF772FFDDF800E01B
:080A9C0001B0704704010400E1
:1011840081B0CDF800E0A9E0012905D14FF00801B4
:101194006548FFF727FC04E04FF008016348FFF7B8
:1011A40073FCBBE0012905D14FF400215E48FFF731
:1011B40019FC04E04FF400215C48FFF765FCADE046
:1011C400012905D14FF008015948FFF70BFC04E051
:1011D4004FF008015748FFF757FC9FE0012905D15C
:1011E4004FF020015248FFF7FDFB04E04FF02001CF
:1011F4005048FFF749FC91E0012905D14FF08001E7
:101204004B48FFF7EFFB04E04FF080014948FFF73C
:101214003BFC83E0012905D14FF040014448FFF72E
:10122400E1FB04E04FF040014248FFF72DFC75E07C
:10123400012905D14FF400613F48FFF7D3FB04E0D7
:101244004FF400613D48FFF71FFC67E0012905D119
:101254004FF480713448FFF7C5FB04E04FF480710C
:101264003248FFF711FC59E0012905D14FF48031D0
:101274002F48FFF7B7FB04E04FF480312D48FFF708
:1012840003FC4BE0012905D14FF400312848FFF756
:10129400A9FB04E04FF400312648FFF7F5FB3DE0DD
:1012A400012905D14FF480712548FFF79BFB04E029
:1012B4004FF480712348FFF7E7FB2FE0012905D1A4
:1012C4004FF400711E48FFF78DFB04E04FF40071EA
:1012D4001C48FFF7D9FB21E0012020E000283FF45F
:1012E40053AF01283FF45EAF02283FF469AF0328EF
:1012F4003FF474AF04283FF47FAF05283FF48AAF6E
:1013040006283FF495AF0728A0D00828ACD00928B8
:10131400B8D00A28C4D00B28D0D0DDE70020DDF8EF
:1013240000E001B0704700BF50F00F4040F00F40A4
:1013340090F00F4080F00F4010F00F4000F00F408D
:08134400D0F00F40C0F00F4093
:100DF40081B0CDF800E0A9E0012905D14FF0400110
:100E04006548FFF7EFFD04E04FF040016348FFF74A
:100E14003BFEBBE0012905D14FF480615E48FFF73A
:100E2400E1FD04E04FF480615C48FFF72DFEADE086
:100E3400012905D14FF004015948FFF7D3FD04E01F
:100E44004FF004015748FFF71FFE9FE0012905D129
:100E54004FF020015248FFF7C5FD04E04FF0200198
:100E64005048FFF711FE91E0012905D14FF08001B0
:100E74004B48FFF7B7FD04E04FF080014948FFF706
:100E840003FE83E0012905D14FF040014448FFF7F8
:100E9400A9FD04E04FF040014248FFF7F5FD75E07D
:100EA400012905D14FF010013F48FFF79BFD04E0F5
:100EB4004FF010013D48FFF7E7FD67E0012905D138
:100EC4004FF080013448FFF78DFD04E04FF08001BE
:100ED4003248FFF7D9FD59E0012905D14FF480319B
:100EE4002F48FFF77FFD04E04FF480312D48FFF7D2
:100EF400CBFD4BE0012905D14FF400312848FFF721
:100F040071FD04E04FF400312648FFF7BDFD3DE0DC
:100F1400012905D14FF480712548FFF763FD04E0F2
:100F24004FF480712348FFF7AFFD2FE0012905D16D
:100F34004FF400711E48FFF755FD04E04FF40071B3
:100F44001C48FFF7A1FD21E0012020E000283FF428
:100F540053AF01283FF45EAF02283FF469AF032882
:100F64003FF474AF04283FF47FAF05283FF48AAF01
:100F740006283FF495AF0728A0D00828ACD009284C
:100F8400B8D00A28C4D00B28D0D0DDE70020DDF883
:100F940000E001B0704700BF50F00F4040F00F4038
:100FA40090F00F4080F00F4010F00F4000F00F4021
:080FB400D0F00F40C0F00F4027
:1014BC0081B0CDF800E011E00846FFF771FC16E0B2
:1014CC000846FFF77FFC12E00846FFF755FF0EE0D9
:1014DC000846FFF763FF0AE0012008E00028EBD084
:1014EC000128EDD00228EFD01028F1D0F4E7DDF878
:0614FC0000E001B07047A2
:100DAC0081B0CDF800E0FFF795FE044A04490A60D3
:100DBC000020DDF800E001B0704700BF550A0000CC
:040DCC002800FF1FDD
:100AE00081B0CDF800E003460A48FFF761FE0A4AEC
:100AF00040F2000104B402B440F20002194640F290
:100B000000030448FFF70AFF02B0DDF800E001B07F
:0C0B1000704700BF00C00640701D0000D0
:1007B00081B0304988420CD12F4A30490A60304A12
:1007C00030490A60304A31490A60314A31490A6089
:1007D0004EE0314988420CD1304A28490A60304AFB
:1007E00028490A602F4A29490A602F4A29490A6084
:1007F0003EE02E4988420CD12D4A20490A602D4AFC
:1008000020490A602C4A21490A602C4A21490A6081
:100810002EE02B4988420CD12A4A18490A602A4AFC
:1008200018490A60294A19490A60294A19490A607F
:100830001EE0284988420CD1274A10490A60274AFD
:1008400010490A60264A11490A60264A11490A607D
:100850000EE0254988420BD1244A08490A60244AFF
:1008600008490A60234A09490A60234A09490A607B
:1008700001B0704700A00640010A00003800FF1FC9
:10088000FFFFFFFF3C00FF1FFFFFFFFF4000FF1FB8
:10089000FFFFFFFF4400FF1F00B00640710A000089
:1008A000FFFFFFFFFFFFFFFFFFFFFFFF00C006404E
:1008B000550A0000FFFFFFFFFFFFFFFFFFFFFFFFE5
:1008C00000D00640390A0000FFFFFFFFFFFFFFFFD7
:1008D000FFFFFFFF00A00E401D0A0000FFFFFFFF0B
:1008E000FFFFFFFFFFFFFFFF00B00E409109000078
:0C08F000FFFFFFFFFFFFFFFFFFFFFFFF08
:10091C0085B0CDF800E001900291ADF80C20ADF857
:10092C001030BDF81440ADF814400698FFF73EFEA9
:10093C000198FFF761FE02990198FFF7EDFDBDF8F4
:10094C000C100198FFF722FEBDF810100198FFF76C
:10095C00ADFEBDF814100198FFF7C4FE0198FFF727
:10096C0095FE0198FFF79AFEDDF800E005B07047A0
:1005B80081B0CDF800E040F2000C83464FEA8C0190
:1005C8000BEB01010968B1F1FF3F12D00BF13401C7
:1005D8004FEA8C03C91809680A460BEB030109683E
:1005E80008461146FFF72EFF0CF1010C1FFA8CFC90
:0A05F800E4E7DDF800E001B0704711
:10044C0082B0CDF800E080464FEA581202F0070265
:10045C00914608F01F04A24693010D4AD3184FF0A1
:10046C000102A240019218460A46019900F080FA56
:10047C004FEA0933074AD3184FEA8A029C1808F44A
:10048C00E06322681A432260DDF800E002B0704796
:08049C0000F00F400090044045
:1006040081B01849884204D1012252B216490A60C5
:1006140026E01649884204D1012252B214490A60E4
:100624001EE01449884204D1012252B212490A60E0
:1006340016E01249884204D1012252B210490A60DC
:100644000EE01049884204D1012252B20E490A60D8
:1006540006E00E49884203D1012252B20C490A60D5
:1006640001B0704700A00640A806904200B00640C2
:10067400AC06904200C00640B006904200D006404E
:10068400B406904200A00E402805904200B00E40EF
:040694002C0590425F
:1005240085B0CDF800E08046894601AA1046FFF761
:10053400B7FF164A904503D0154A904500D001E014
:10054400019800E002984FEA0912B0FBF2F291B26E
:1005540092B2130A9BB298F800201A4388F800203C
:1005640008F10103CAB21A7043014FEA0912B3FB3E
:10057400F2F34A0192B29A1AD0B208F10A031A7835
:1005840002431A70DDF800E005B0704700A0064091
:0405940000B006406D
:1004A40081B0CDF800E00446FFF7B0FF40F2E83138
:1004B40000FB01F3194909680A0F1849096801F09A
:1004C4007061090EC8B21549096801F47001090D7B
:1004D400CDB21249096801F47021090CCEB2D1B22F
:1004E400491C09B259430F462360221D411C09B21D
:1004F400B7FBF1F1116004F20802691C09B2B7FB01
:10050400F1F1116004F20C02711C09B2B7FBF1F1B4
:100514001160DDF800E001B0704700BF4480044082
:0C04100001480068704700BF3400FF1F67
:1005980081B0841C23784FF6EF7212B203EA02028C
:1005A8002270841C0B0122781A43227001B0704714
:1006B80081B001F0020262B1841C01F002032278C9
:1006C8001A432270841C01F0010322781A43227015
:1006D80007E0841C23784FF6FD7212B203EA020287
:0606E800227001B0704712
:0C06F00081B002780A43027001B070472C
:1006980081B0C21C117841F00401117001B070479B
:1006A80081B0C21C117841F00801117001B0704787
:100DD00081B0CDF800E0FFF765FE044A04490A60DF
:100DE0000020DDF800E001B0704700BF390A0000C4
:040DF0002800FF1FB9
:100AA40081B0CDF800E003460A48FFF77FFE0A4A0A
:100AB40040F2000104B402B440F20002194640F2CC
:100AC40000030448FFF728FF02B0DDF800E001B09E
:0C0AD400704700BF00D00640981C0000D6
:1013840081B0CDF800E0FFF78BFB044A04490A6002
:101394000020DDF800E001B0704700BF390A00000A
:0413A4002800FF1FFF
:1013A80081B0CDF800E0FFF7FDFA044A04490A606D
:1013B8000020DDF800E001B0704700BF010A00001E
:0413C8002800FF1FDB
:1009AC0081B0CDF800E003460A48FFF7FBFE0A4A87
:1009BC0040F2000104B402B440F20002194640F2C5
:1009CC0000030448FFF7A4FF02B0DDF800E001B01B
:0C09DC00704700BF00A00640041D000092
:1016D00081B0CDF800E00848FFF73EFF0120FFF79A
:1016E000E1FEFFF74FFF05480221FFF757FFDDF846
:1016F00000E001B0704700BFDC1D00000000FF1FCC
:1015580081B0CDF800E0FFF701FFDDF800E001B051
:021568007047CA
:1013640000F2300108310A6803490A60011D0A6865
:1013740002490A60704700BF2C00FF1F3000FF1FA6
:1014A40081B0CDF800E0034C2468A047DDF800E0EB
:0814B40001B070473000FF1F7A
:0C134C0001490860704700BF0808FE431C
:0C13580001490860704700BF2C08FE43EC
:0C0DA00001490860704700BF1010FE43BE
:0C0D4C0001490860704700BF1410FE430E
:0C0D580001490860704700BF1C10FE43FA
:0C0D400001490860704700BF1810FE4316
:0C0D280001490860704700BF2800FE432E
:0C0D340001490860704700BF3408FE430E
:0C0D880001490860704700BF0818FE43D6
:0C0D940001490860704700BF0C18FE43C6
:0C0D7C0001490860704700BF2018FE43CA
:0C0D640001490860704700BF2418FE43DE
:0C0D700001490860704700BF0C08FE43FA
:0C13CC0001490860704700BF4C08FE4358
:0C14740001490860704700BF0C10FE43E7
:0C14800001490860704700BF1410FE43D3
:0C14680001490860704700BF1C10FE43E3
:0C14500001490860704700BF1810FE43FF
:0C145C0001490860704700BF2C00FE43EF
:0C148C0001490860704700BF2008FE43C3
:0C14980001490860704700BF4010FE438F
:0C14440001490860704700BF4410FE43DF
:0C13F00001490860704700BF2018FE4350
:0C13FC0001490860704700BF2418FE4340
:0C13D80001490860704700BF1808FE4380
:0C13E40001490860704700BF2808FE4364
:0C14080001490860704700BF0810FE4357
:0C142C0001490860704700BF1410FE4327
:0C14380001490860704700BF1C10FE4313
:0C14140001490860704700BF1810FE433B
:0C14200001490860704700BF1000FE4347
:0C0D1C0001490860704700BF1C08FE433E
:0C0B940001490860704700BF4010FE439C
:0C0B880001490860704700BF4410FE43A4
:0C0BA00001490860704700BF2018FE43A8
:0C0BAC0001490860704700BF2418FE4398
:1015840045F6FE17C0F2622700BF00BF7F1EFDD1E3
:0815940000BF00BF00BF70475B
:10159C0083B0CDF800E0024610460D228DF80820ED
:1015AC000A228DF809201FE0FFF70CFB23E00278DC
:1015BC002AB10190FFF706FB0198401CF7E71AE0EF
:1015CC0002782AB10190FFF7FDFA0198401CF7E769
:1015DC0002AA1046FFF7F6FA0DF109021046FFF7C2
:1015EC00F1FA08E0062007E00029DDD00129DED061
:1015FC000229E5D0F6E70020DDF800E003B07047E3
:100BD00081B0CDF800E00178CCB2A0B2034C24681B
:100BE000A0470020DDF800E001B070472800FF1F9B
:100A000081B0CDF800E081B20348FFF777FFDDF851
:0C0A100000E001B0704700BF00A00640ED
:1008FC0081B0ADF800100146BDF800000A1D137858
:10090C00C3F3C01202B9F9E7CA1D107001B07047E9
:100A700081B0CDF800E081B20348FFF73FFFDDF819
:0C0A800000E001B0704700BF00B006406D
:100A540081B0CDF800E081B20348FFF74DFFDDF827
:0C0A640000E001B0704700BF00C0064079
:100A380081B0CDF800E081B20348FFF75BFFDDF835
:0C0A480000E001B0704700BF00D0064085
:100A1C0081B0CDF800E081B20348FFF769FFDDF843
:0C0A2C0000E001B0704700BF00A00E40C9
:1009900081B0CDF800E081B20348FFF7AFFFDDF88A
:0C09A00000E001B0704700BF00B00E4046
:1016A00081B0CDF800E0FFF761FF0749087001281D
:1016B00005D106480221FFF771FFFFF763FFDDF850
:1016C00000E001B0704700BF0D00FF1F0E00FF1FBC
:10156C0081B0CDF800E0034C2468A047DDF800E022
:08157C0001B070472C00FF1FB5
:0C0BF00001480068704700BF080AFE437F
:0C0BB80001480068704700BF2C0AFE4393
:0C0BC40001480068704700BF1012FE439B
:0C0B7C0001480068704700BF1412FE43DF
:0C0B1C0001480068704700BF1C12FE4337
:0C0B280001480068704700BF1812FE432F
:0C0B340001480068704700BF2802FE4323
:0C0B640001480068704700BF340AFE43DF
:0C0B700001480068704700BF081AFE43EF
:0C0B580001480068704700BF0C1AFE4303
:0C0B400001480068704700BF201AFE4307
:0C0B4C0001480068704700BF241AFE43F7
:0C0CB00001480068704700BF0C0AFE43BA
:0C0CBC0001480068704700BF4C0AFE436E
:0C0CC80001480068704700BF0C12FE439A
:0C0C8C0001480068704700BF1412FE43CE
:0C0C980001480068704700BF1C12FE43BA
:0C0CA40001480068704700BF1812FE43B2
:0C0CF80001480068704700BF2C02FE435A
:0C0D040001480068704700BF200AFE4351
:0C0D100001480068704700BF4012FE431D
:0C0CD40001480068704700BF4412FE4356
:0C0CE00001480068704700BF201AFE4366
:0C0CEC0001480068704700BF241AFE4356
:0C0C200001480068704700BF180AFE433E
:0C0C2C0001480068704700BF280AFE4322
:0C0C380001480068704700BF0812FE432E
:0C0BFC0001480068704700BF1412FE435F
:0C0C080001480068704700BF1C12FE434A
:0C0C140001480068704700BF1812FE4342
:0C0C680001480068704700BF1002FE4306
:0C0C740001480068704700BF1C0AFE43E6
:0C0C800001480068704700BF4012FE43AE
:0C0C440001480068704700BF4412FE43E6
:0C0C500001480068704700BF201AFE43F6
:0C0C5C0001480068704700BF241AFE43E6
:10176C0090B072B6974801909748029097480390B2
:10177C00974804909748059097480690974807908B
:10178C00974808909748099097480A9097480B906B
:10179C0097480C90974998480D9098480E900D9842
:1017AC0000F007000F9001F0010050B94CF22050EE
:1017BC00934908804DF62810088040F2D2119148C8
:1017CC0001809148007800F0010050B18F480078FA
:1017DC0000F0080020B18D49087840F0080008702E
:1017EC0021E08B48006840F000518948016089482D
:1017FC00006800F48070B0B9864801686FF47050CE
:10180C0001EA000040F440718248016081480068A0
:10181C0040F480717F4801607E4801686FF400706D
:10182C0001407C480160AA217B4801700D9800F0B2
:10183C00100060B9794801786FF06000014077487A
:10184C00017077480078012800D0FAE71CE00D9869
:10185C0000F01000C0B10E997248814208D9602185
:10186C006E4801706E480078802800D0FAE70BE0D3
:10187C006A4801786FF06000014068480170684860
:10188C000078012800D0FAE704996748016067489E
:10189C0001686FF440200140029800F4402001439D
:1018AC0062480160624801686FF44030014003985F
:1018BC0000F4403001435E4801600F9830B10F983E
:1018CC00012803D00F98022800D061E0019800F0A5
:1018DC00800050B9089800F0400028B10B9800F037
:1018EC000300002800D100E015E05248006840F4E5
:1018FC0000715048016050480168504801404E4802
:10190C000160069800F0040028B14D4801684B486E
:10191C0001404B4801600A994A48017005994A48B0
:10192C000170059800F0040038B14848007800F0C8
:10193C001000002800D1F8E705E04448007800F0DA
:10194C00100000B1F9E74248007800F0BF01C9B2BD
:10195C00069800F0FD0001433D480170079800F027
:10196C00E0013C48007800F01F0001433948017049
:10197C000199394801700B99384801700F98022869
:10198C0005D13348007840F0020131480170B8E0CD
:10199C00019800F0800020B90B9800F0030000B112
:1019AC0065E02448006840F4007122480160224838
:1019BC0001682248014020480160069800F00400AC
:1019CC0000F04EB80000000000000C000000010008
:1019DC0000001401220000002400000000000000A0
:1019EC0002000000460000000000000000000000A3
:1019FC00000000000000000007000000C0D401003F
:101A0C000E2005400020054000F0074002D00740A2
:101A1C003C80044010D0034000E0074001E0074048
:101A2C0003E007408038010044800440007004400B
:101A3C00048004403880044048900440FFF8FFFEC6
:101A4C004C900440084006400040064006400640CA
:101A5C000140064003400640005006400C40064042
:101A6C0028B17A4801687A480140784801600A999F
:101A7C00784801707848007800F0BF01C9B2069828
:101A8C0000F0FD0001437448017001997348017026
:101A9C000B99734801700F98072805D1059840F0F1
:101AAC0080017048017002E005996E48017006983B
:101ABC0000F0040048B10B9800F0030028B96A4804
:101ACC00007800F0020000B9F9E7059800F0040076
:101ADC0038B16548007800F01000002800D1F8E714
:101AEC0005E06148007800F0100000B1F9E70798B4
:101AFC0000F0E0015D48007800F01F0001435B48F6
:101B0C000170089800F0BF0159480170099800F065
:101B1C00BF0158480170089800F0400028B15448A3
:101B2C00007840F04001524801700F98052806D10A
:101B3C004948007840F00201474801701BE00F98BB
:101B4C00062803D00F98072800D014E049480078E5
:101B5C0040F04001474801704348007800F04000D5
:101B6C0000B9F9E70F98072805D13E48007800F036
:101B7C003F013C4801700F9818B10F98032800D012
:101B8C002CE03948007800F00C0000B1F9E73A4835
:101B9C00006840F00101384801604FF000013748FF
:101BAC0001604FF08001364801604FF00501354867
:101BBC0001604FF00101324801603148006800F0CB
:101BCC00800000B9F9E700212D4801602A4801681E
:101BDC006FF001000140284801602AE00F980128AD
:101BEC0003D00F98022800D007E01F48007800F0BF
:101BFC000C00042800D0F8E71BE00F98042806D04E
:101C0C000F98062803D00F98052800D007E0164837
:101C1C00007800F00C00082800D0F8E709E00F98D5
:101C2C00072806D11048007800F00C000C2800D0D2
:101C3C00F8E7154801686FF00F0001400C9800F0B0
:101C4C000F0001431048016010B070474C900440E5
:101C5C00FFF8FFFE084006400140064000500640D9
:101C6C000C4006400040064006400640034006403B
:101C7C0004400640054006403880044008000440FB
:0C1C8C00000004400400044048800440B4
:1017340081B002490248016001B07047C0D4010081
:041744003400FF1F4F
:0817000081B0FEE701B0704763
:1017080081B072B60849086840F47000086000BFEC
:1017180000BF00BF00BFF1EE100A40F44000E1EE48
:0C172800100A62B601B0704788ED00E0C6
:101E640000B5DFF814B0DFF814A0DFF814C0FFF7F2
:101E7400E9FB00BD704700BF0000FF1F2800FF1FE3
:041E84003C1E000000
:101EE40000B5DFF810B0DFF810A0FFF78DFB00BDE0
:0C1EF400704700BF0000FF1F4800FF1FE8
:100400000000000000000000FFFFFFFF02FDFFFFF3
:101C98005103000050030000FFFFFFFF0000000099
:101CA800000000000000000000000000000000002C
:101CB800000000000000000000000000000000001C
:101CC800000000000000080000000800FFFFFFFF00
:101CD80000000000000000000000000000000000FC
:101CE80000000000000000000000000000000000EC
:0C1CF800000000000000000000000000E0
:101D04003103000030030000FFFFFFFF000000006C
:101D140000000000000000000000000000000000BF
:101D240000000000000000000000000000000000AF
:101D3400000000000000080000000800FFFFFFFF93
:101D4400000000000000000000000000000000008F
:101D5400000000000000000000000000000000007F
:0C1D640000000000000000000000000073
:101D70006303000062030000FFFFFFFF000000009C
:101D80000000000000000000000000000000000053
:101D90000000000000000000000000000000000043
:101DA000000000000000080000000800FFFFFFFF27
:101DB0000000000000000000000000000000000023
:101DC0000000000000000000000000000000000013
:0C1DD00000000000000000000000000007
:101DDC004D13000059130000A10D00004D0D000023
:101DEC00590D0000410D0000290D0000350D0000BB
:101DFC00890D0000950D00007D0D0000650D0000A3
:101E0C00F10B0000B90B0000C50B00007D0B0000AE
:101E1C001D0B0000290B0000350B0000650B0000AA
:101E2C00710B0000590B0000410B00004D0B000022
:0E1E3C002D2D2D20496E6974202D2D2D0000B6
:101E4A00566F6C746173652072656475636564208E
:0A1E5A00746F20333330306D5600F2
:00000001FF
