:100000003FEF07F00000000000EF00F000000000EC
:0A0010000000000000000000F3D71C
:0E001C00000160B102D08B9801D08B881200D9
:0E002A00000160B102D08B9601D08B861200CF
:0E003800000160B102D08D9601D08D861200BD
:0E004600000160B102D0899401D089841200BB
:0E005400000160B102D08B9C01D08B8C120099
:0E006200000160B102D08B9401D08B8412009B
:0E007000000160B102D08B9A01D08B8A120081
:0E007E00000160B102D08B9E01D08B8E12006B
:0E008C00000160B102D08A9201D08A82120077
:0E009A00000160B102D08D9401D08D8412005F
:0E00A800000160B102D08F9201D08F82120051
:0E00B600000160B102D08F9401D08F8412003F
:0E00C400000160B102D08B9801D08B88120031
:0E00D200000160B102D08B9601D08B86120027
:0E00E000000160B102D08A9401D08A8412001F
:0E00EE00000160B102D08B9801D08B88120007
:0E00FC00000160B102D08B9601D08B861200FD
:0E010A00000160B102D08F9001D08F801200F2
:0E011800000160B102D08B9A01D08B8A1200D8
:0E012600000160B102D08B9801D08B881200CE
:0E013400000160B102D08B9601D08B861200C4
:0E014200000160B102D08B9201D08B821200BE
:0E015000000160B102D08B9A01D08B8A1200A0
:0E015E00000160B102D08D9001D08D801200A2
:10016C000F0121B302D00000FBD760C01CFF1200AE
:0E017C00ACB202D00000FCD760C0ADFF120094
:0E018A00000160B102D08B9001D08B8012007A
:0E019800000160B102D0899001D08980120070
:0E01A600000160B102D08A9001D08A80120060
:0E01B400000160B102D08D9201D08D82120048
:0E01C200000160B102D0899801D08988120036
:0E01D000000160B102D08B9801D08B88120024
:0E01DE00000160B102D08B9601D08B8612001A
:0E01EC00000160B102D0899201D08982120018
:0E01FA00000160B102D08B9C01D08B8C1200F2
:0E020800000160B102D08B9E01D08B8E1200DF
:0E021600000160B102D08B9801D08B881200DD
:0E022400000160B102D08B9601D08B861200D3
:0A023200000E84B0010E006E1200F1
:0A023C00000EA4BA010E006E1200BD
:0A024600000E84B2010E006E1200DB
:0A025000000E80B0010E006E1200D7
:0A025A00000E82BA010E006E1200C1
:0A026400000E81B0010E006E1200C2
:0A026E00000E82B2010E006E1200B5
:0A027800000E9EBA010E006E120087
:100282001DCF01F00F0122A302D02299228901C0C1
:0402920000F0120066
:0A029600000EACB2010E006E120063
:1002A000AECF01F0ABA202D0AB98AB8801C000F09A
:0202B00012003A
:0C02B200000E0F0121B3010E006E1200BF
:0A02BE00000E82B0010E006E120067
:1002C800F250026EF29E0500FF6A0150FE6E005069
:0802D800FD6E02BEF28E120061
:0A02E000000E82B8010E006E12003D
:0A02EA00000E86B4010E006E120033
:0A02F400000E82B6010E006E12002B
:0A02FE00000E84B6010E006E12001F
:0A030800000E82B6010E006E120016
:0A031200000E82B8010E006E12000A
:0A031C00000E80B4010E006E120006
:0A032600000E81B4010E006E1200FB
:0A033000000E86B2010E006E1200EE
:10033A007C0E496E010E4A6E600E4B6E000E4C6EBC
:10034A00A00E4D6E020E4E6E000E4F6E000E506ED7
:10035A00780E556E020E566E000E576E000E586ECF
:10036A00960E516E020E526E000E536E000E546EB1
:10037A00AC8A900EAB6E948E949C9EAA03D0AECF9C
:06038A0000F0FBD7120099
:0A039000000E82B8010E006E12008C
:0A039A00000E84B4010E006E120084
:0A03A400000E82BA010E006E120076
:1003AE006C0E496E010E4A6E600E4B6E000E4C6E58
:1003BE00820E4D6E020E4E6E000E4F6E000E506E81
:1003CE003C0E556E020E566E000E576E000E586E97
:1003DE00B20E516E020E526E000E536E000E546E21
:1003EE000F01218B900E226F98849892A4AA03D0AD
:0803FE001DCF00F0FBD7120037
:0A040600000E82B6010E006E120017
:0A041000000E82BC010E006E120007
:0A041A00000E82B6010E006E120003
:0A042400000E82BC010E006E1200F3
:0A042E00000E80B8010E006E1200EF
:0A043800000E82B6010E006E1200E5
:0A044200000E82B8010E006E1200D9
:0A044C00000E82BE010E006E1200C9
:0A045600000E80B2010E006E1200CD
:0A046000000E82B8010E006E1200BB
:0A046A00000E82B4010E006E1200B5
:0A047400000E81B2010E006E1200AE
:0A047E00000E82BE010E006E120097
:0A048800000E82BA010E006E120091
:0A049200000E86B0010E006E12008D
:0A049C00000E82B6010E006E120081
:0A04A600000E82B8010E006E120075
:1004B00021D0CF0EAF6EAC9440DF6BD0670EAF6E25
:1004C000AC943BDF66D0CF0EAF6EAC8436DF61D02C
:1004D000670EAF6EAC8431DF5CD0440EAF6EAC847F
:1004E0002CDF57D0220EAF6EAC8427DF52D0060E21
:1004F000006E58D0000E006E0001641908E1005033
:10050000631905E1120E621902E16151C00AD1E0DE
:10051000000E006E641908E10050631905E1250E14
:10052000621902E16151800AC9E0000E006E64198F
:1005300008E10050631905E14B0E621902E16151B7
:10054000000AC1E0000E006E641908E10050631952
:1005500005E1960E621902E16151000AB9E0000E50
:10056000006E641908E10050631905E1E10E62199B
:1005700002E16151000AB1E06451000A08E16351EF
:10058000010A05E16251C20A02E16151000AAAE0D2
:10059000AED77C0E3D6E010E3E6E600E3F6E000EBD
:0605A000406E006A12002B
:1005A60021D0CF0EAF6EAC94C5DE6BD0670EAF6EAA
:1005B600AC94C0DE66D0CF0EAF6EAC84BBDE61D02D
:1005C600670EAF6EAC84B6DE5CD0440EAF6EAC8404
:1005D600B1DE57D0220EAF6EAC84ACDE52D0060E22
:1005E600006E58D0000E006E0001641908E100503C
:1005F600631905E1120E621902E16151C00AD1E0E8
:10060600000E006E641908E10050631905E1250E1D
:10061600621902E16151800AC9E0000E006E641998
:1006260008E10050631905E14B0E621902E16151C0
:10063600000AC1E0000E006E641908E1005063195B
:1006460005E1960E621902E16151000AB9E0000E59
:10065600006E641908E10050631905E1E10E6219A4
:1006660002E16151000AB1E06451000A08E16351F8
:10067600010A05E16251C20A02E16151000AAAE0DB
:10068600AED77C0E3D6E010E3E6E600E3F6E000EC6
:06069600406E006A120034
:10069C0038D00F0120870D0E1F6F040E1E6F2185A1
:1006AC0080DE7ED00F012087060E1F6F820E1E6F1C
:1006BC00218577DE75D00F012087030E1F6F400E4A
:1006CC001E6F21856EDE6CD00F012087010E1F6F0F
:1006DC00A00E1E6F218565DE63D00F012087010EF1
:1006EC001F6F150E1E6F21855CDE5AD00F012087FF
:1006FC001F6B8A0E1E6F218554DE52D0060E006EC3
:10070C0058D0000E006E0001641908E10050631906
:10071C0005E1120E621902E16151C00ABAE0000E45
:10072C00006E641908E10050631905E1250E621989
:10073C0002E16151800AB6E0000E006E641908E116
:10074C000050631905E14B0E621902E16151000A78
:10075C00B2E0000E006E641908E10050631905E167
:10076C00960E621902E16151000AAEE0000E006EB5
:10077C00641908E10050631905E1E10E621902E108
:10078C006151000AAAE06451000A08E16351010AB0
:10079C0005E16251C20A02E16151000AA7E0AED73D
:1007AC006C0E3D6E010E3E6E600E3F6E000E406E86
:0407BC00006A1200BD
:1007C00057D0000162B102D0929201D0928276D0CD
:1007D000000162B102D0929801D092886FD00001DE
:1007E00062B102D0969201D0968268D0000162B1C7
:1007F00002D0949601D0948661D0000162B102D0FB
:10080000949801D094885AD0000162B102D0949A91
:1008100001D0948A53D0000162B102D0949401D0E7
:1008200094844CD0000162B102D0939201D09382A3
:1008300045D0000162B102D0949E01D0948E3ED08A
:10084000000162B102D0949C01D0948C37D0000199
:1008500062B102D0949601D0948630D0000162B18A
:1008600002D0949801D0948829D0010E006E28D02F
:1008700000016151000AA5E06151010AA9E061513E
:10088000020AADE06151030AB1E06151040AB5E02A
:100890006151050AB9E06151060ABDE06151070ADC
:1008A000C1E06151080AC5E06151090AC9E061511E
:1008B0000A0ACDE061510B0AD1E0D7D7000E006ED5
:0208C000120024
:1008C20057D0000162B102D0929001D0928076D0CE
:1008D200000162B102D0949001D094806FD00001E7
:1008E20062B102D0969001D0968068D0000162B1C8
:1008F20002D0949601D0948661D0000162B102D0F8
:10090200949801D094885AD0000162B102D0949A8E
:1009120001D0948A53D0000162B102D0949201D0E6
:1009220094824CD0000162B102D0939001D09380A6
:1009320045D0000162B102D0949E01D0948E3ED087
:10094200000162B102D0949C01D0948C37D0000196
:1009520062B102D0949601D0948630D0000162B187
:1009620002D0949801D0948829D0010E006E28D02C
:1009720000016151000AA5E06151010AA9E061513B
:10098200020AADE06151030AB1E06151040AB5E027
:100992006151050AB9E06151060ABDE06151070AD9
:1009A200C1E06151080AC5E06151090AC9E061511B
:1009B2000A0ACDE061510B0AD1E0D7D7000E006ED2
:0209C200120021
:1009C40021D0CF0EAF6EAC94B6DC6BD0670EAF6E99
:1009D400AC94B1DC66D0CF0EAF6EAC84ACDC61D02D
:1009E400670EAF6EAC84A7DC5CD0440EAF6EAC84F3
:1009F400A2DC57D0220EAF6EAC849DDC52D0060E22
:100A0400006E58D0000E006E0001641908E1005019
:100A1400631905E1120E621902E16151C00AD1E0C5
:100A2400000E006E641908E10050631905E1250EFB
:100A3400621902E16151800AC9E0000E006E641976
:100A440008E10050631905E14B0E621902E161519E
:100A5400000AC1E0000E006E641908E10050631939
:100A640005E1960E621902E16151000AB9E0000E37
:100A7400006E641908E10050631905E1E10E621982
:100A840002E16151000AB1E06451000A08E16351D6
:100A9400010A05E16251C20A02E16151000AAAE0B9
:100AA400AED77C0E3D6E010E3E6E600E3F6E000EA4
:060AB400406E006A120012
:100ABA0057D0000162B102D0929401D0928476D0CC
:100ACA00000162B102D0969601D096866FD00001DD
:100ADA0062B102D0969401D0968468D0000162B1C6
:100AEA0002D0949601D0948661D0000162B102D0FE
:100AFA00949801D094885AD0000162B102D0949A95
:100B0A0001D0948A53D0000162B102D0989001D0EA
:100B1A0098804CD0000162B102D0939401D09384A2
:100B2A0045D0000162B102D0989401D098843ED099
:100B3A00000162B102D0989201D0988237D00001A8
:100B4A0062B102D0949601D0948630D0000162B18D
:100B5A0002D0949801D0948829D0010E006E28D032
:100B6A0000016151000AA5E06151010AA9E0615141
:100B7A00020AADE06151030AB1E06151040AB5E02D
:100B8A006151050AB9E06151060ABDE06151070ADF
:100B9A00C1E06151080AC5E06151090AC9E0615121
:100BAA000A0ACDE061510B0AD1E0D7D7000E006ED8
:020BBA00120027
:100BBC00300E00016125006E000E6221016E000EE8
:100BCC006321026E080E0024F66E000E0120F76EF3
:100BDC00000E0220F86E0900F5CF45F00900F5CFA4
:100BEC0046F00900F5CF47F00900F5CF48F0040EA8
:100BFC006125F66E000E6221F76E000E6321F86E11
:100C0C000900F5CF41F00900F5CF42F00900F5CF0E
:0A0C1C0043F00900F5CF44F0120088
:100C26003FC0E1FF40C0E2FF61C0E9FF62C0EAFFEA
:100C3600EECFE6FF3DC000F03EC001F064EC01F0EF
:040C4600006A12002E
:100C4A002BD05AC061F05BC062F05CC063F05DC03B
:100C5A0064F0B3DE2ED05AC061F05BC062F05CC0B3
:100C6A0063F05DC064F01FDC24D05AC061F05BC041
:100C7A0062F05CC063F05DC064F00BDD1AD05AC04C
:100C8A0061F05BC062F05CC063F05DC064F086DC5A
:100C9A0010D0010E006E0DD05950000AD2E0595002
:100CAA00010AD9E05950020AE0E05950100AE7E077
:040CBA00F0D712005D
:0E0CBE0045C000F046C001F064EC01F01200E9
:100CCC0015D05AC061F05BC062F0F5DD19D05AC086
:100CDC0061F05BC062F06EDD13D05AC061F05BC096
:100CEC0062F0E5DE0DD0010E006E0AD05950000AFC
:100CFC00E8E05950010AEBE05950020AEEE0F3D754
:020D0C001200D3
:100D0E0059C05CF05AC05DF00D0E5E6E0A0E5F6E3D
:100D1E0033D05CC061F05DC062F07EDF37D05CC066
:100D2E00E9FF5DC0EAFFEE5208E05CC061F05DC015
:100D3E0062F072DF5C4A5D2AF2D728D05CC0E9FF10
:100D4E005DC0EAFFEE5208E05CC061F05DC062F08B
:100D5E0063DF5C4A5D2AF2D75E0E0001616F000E02
:100D6E00626F5ADF5F0E0001616F000E626F54DF1B
:100D7E000DD0060E006E0BD05B50000ACAE05B5021
:100D8E00010ACDE05B50020AD9E0F3D7006A1200E7
:100D9E0043C0E1FF44C0E2FF59C0E6FF41C000F08E
:0A0DAE0042C001F064EC01F01200F5
:100DB80059C061F05AC062F05BC063F0FBDE1200FC
:100DC800520E0B6E2B0E0C6E000E0D6E0D2EFED7F6
:0C0DD8000C2EFCD70B2EFAD700001200E6
:100DE400596A020E5A6E010E5B6E6EDF596A010E6D
:100DF4005A6E5B6A69DF100E596E800E5A6E250EAC
:100E04005B6E000E5C6E5D6E1EDF090E0B6E1E0EB9
:100E14000C6EE40E0D6E0D2EFED70C2EFCD70B2E91
:060E2400FAD700001200E5
:100E2A000900F5CFE6FF0006FBE10106F9E1120031
:100E3A008C0E596E0E0E5A6E000E5B6EB8DF010EE6
:100E4A00596EA8DFBCDF150E596E000E5A6E020EDF
:060E5A005B6E58DF120080
:100E60002EDF00C03CF00050010A08E1220E596E4E
:0E0E7000000E5A6E020E5B6E4ADFA6DF120005
:0E0E7E008AEC07F0B0DFDADFECDFFED7FFD73B
:100F140010EE15F0280E006E010E016EEC0EF66E4A
:0E0F24000E0EF76E000EF86E15EC07F01200C0
:100E8C00980160008A0160005E016000340160001E
:100E9C00260160005001600042016000A601600064
:100EAC0008026000FA016000240260001602600073
:100EBC0050020000BE020000320200001A040000C2
:100ECC00420400005A0200006E020000640200009E
:100EDC004C040000240400003804000060040000EE
:0D0EEC002D2D2D20496E6974202D2D2D0017
:100EF900566F6C74617365207265647563656420EF
:0A0F0900746F20333330306D560052
:010F130000DD
:020000040030CA
:0E00000015137F7CF98B91FFFFC0FFE0FF40DE
:00000001FF
